:020000040800F2
:1000000000000220110A00080D0A0008D55500085A
:100010000D0A00080D0A00080D0A00080000000083
:100020000000000000000000000000000D0A0008B1
:100030000D0A0008000000000D0A000859550008CC
:100040000D0A00080D0A00080D0A00080D0A000834
:100050000D0A00080D0A00080D0A00080D0A000824
:100060000D0A00080D0A00080D0A00086151000879
:100070006D5100085D3A000879510008855100086B
:10008000BD150108494600080D0A00080D0A0008C0
:100090000D0A00080D0A00080D0A00080D0A0008E4
:1000A0000D0A00080D0A00080D0A00080D0A0008D4
:1000B000D5090108E1090108ED0901087D4600089C
:1000C0000D0A0008894600080D0A000845020108CB
:1000D00051020108F11301081D140108511401080F
:1000E0000D0A00080D0A0008000000000D0A0008B3
:1000F0000D0A00080D0A00080D0A00080D0A000884
:100100000D0A00080D0A0008F90901085D0201083E
:1001100085140108B9140108293D00080D0A0008DA
:10012000113D00081D3D000881020108B5020108CB
:10013000F11501080D0A00080D0A00080D0A000853
:1001400000000000000000000000000000000000AF
:100150000D0A00080D0A00080D0A0008ED14010838
:10016000954600080D0A0008695500088D550008DD
:100170000D0A0008B15500080D0A00080D0A000814
:100180000D0A00080D0A000821150108551501087F
:1001900069020108750201080D0A00080D0A00082D
:1001A0000D0A00080D0A00080D0A00080D0A0008D3
:1001B000814E00080D0A00080D0A00080D0A00080B
:1001C0000D0A00080D0A00081D3500082935000831
:1001D0000D0A0008353500080D0A00080D0A000850
:1001E0000D0A00080D0A00080D0A00080D0A000893
:1001F0000D0A00080D0A00080D0A00080D0A000883
:100200000D0A00080D0A00080D0A00080D0A000872
:100210000D0A00080D0A00080D0A00080D0A000862
:100220000D0A00080D0A00080D0A00080000000071
:100230000D0A00080D0A0008000000000D0A000861
:100240000D0A00080D0A00080D0A00080D0A000832
:100250000D0A00080D0A00080D0A00080D0A000822
:100260000D0A00080D0A00080D0A00080D0A000812
:100270000D0A00080D0A0008891501080000000099
:100280000D0A00080D0A00080D0A00080000000011
:08029000000000000D0A000847
:1002A00010B5054C237833B9044B13B10448AFF3B0
:1002B00000800123237010BD780700240000000097
:1002C0003C96010808B5034B1BB103490348AFF343
:1002D000008008BD000000007C0700243C96010857
:1002E000034613F8012B002AFBD1181A0138704776
:1002F00001F0FF01102A2BDB10F0070F08D010F8D7
:10030000013B013A8B422DD010F0070F42B3F6D1DA
:10031000F0B441EA012141EA014122F007047FF0F3
:1003200000070023F0E80256083C85EA010586EA4A
:10033000010685FA47F5A3FA87F586FA47F6A5FA86
:1003400087F68EB9EED1F0BC01F0FF0102F0070292
:1003500032B110F8013B013A83EA010313B1F8D13D
:100360000020704701387047002D06BF354603381E
:10037000073815F0010F07D1013015F4807F02BF57
:10038000013015F4C03F0130F0BC0138704700BFA8
:1003900081F0004102E000BF83F0004330B54FEA36
:1003A00041044FEA430594EA050F08BF90EA020FA3
:1003B0001FBF54EA000C55EA020C7FEA645C7FEA36
:1003C000655C00F0E2804FEA5454D4EB5555B8BF59
:1003D0006D420CDD2C4480EA020281EA030382EACA
:1003E000000083EA010180EA020281EA0303362D5C
:1003F00088BF30BD11F0004F4FEA01314FF4801C2F
:100400004CEA113102D0404261EB410113F0004F40
:100410004FEA03334CEA133302D0524263EB4303F7
:1004200094EA050F00F0A780A4F10104D5F1200E95
:100430000DDB02FA0EFC22FA05F2801841F10001F0
:1004400003FA0EF2801843FA05F359410EE0A5F1C4
:1004500020050EF1200E012A03FA0EFC28BF4CF0F5
:10046000020C43FA05F3C01851EBE37101F00045AB
:1004700007D54FF0000EDCF1000C7EEB00006EEBB8
:100480000101B1F5801F1BD3B1F5001F0CD3490842
:100490005FEA30004FEA3C0C04F101044FEA445299
:1004A00012F5800F80F09A80BCF1004F08BF5FEA20
:1004B000500C50F1000041EB045141EA050130BD00
:1004C0005FEA4C0C404141EB0101013C28BFB1F512
:1004D000801FE9D291F0000F04BF01460020B1FA5D
:1004E00081F308BF2033A3F10B03B3F120020CDA30
:1004F0000C3208DD02F1140CC2F10C0201FA0CF00E
:1005000021FA02F10CE002F11402D8BFC2F1200C72
:1005100001FA02F120FA0CFCDCBF41EA0C01904028
:10052000E41AA2BF01EB0451294330BD6FEA040471
:100530001F3C1CDA0C340EDC04F11404C4F120025C
:1005400020FA04F001FA02F340EA030021FA04F36E
:1005500045EA030130BDC4F10C04C4F1200220FAC5
:1005600002F001FA04F340EA0300294630BD21FA03
:1005700004F0294630BD94F0000F83F4801306BFC9
:1005800081F480110134013D4EE77FEA645C18BFBD
:100590007FEA655C29D094EA050F08BF90EA020F54
:1005A00005D054EA000C04BF1946104630BD91EA4C
:1005B000030F1EBF0021002030BD5FEA545C05D14F
:1005C0004000494128BF41F0004130BD14F580048E
:1005D0003CBF01F5801130BD01F0004545F0FE4102
:1005E00041F470014FF0000030BD7FEA645C1ABF37
:1005F000194610467FEA655C1CBF0B46024650EA6E
:10060000013406BF52EA033591EA030F41F4002199
:1006100030BD00BF90F0000F04BF0021704730B51F
:100620004FF4806404F132044FF000054FF00001F4
:1006300050E700BF90F0000F04BF0021704730B5B5
:100640004FF4806404F1320410F0004548BF40428A
:100650004FF000013EE700BF42004FEAE2014FEADF
:1006600031014FEA02701FBF12F07F4393F07F4FBA
:1006700081F06051704732F07F4208BF704793F0BD
:100680007F4F04BF41F40021704730B54FF46074D0
:1006900001F0004521F000411CE700BF50EA0102D3
:1006A00008BF704730B54FF000050AE050EA01027C
:1006B00008BF704730B511F0004502D5404261EBEC
:1006C00041014FF4806404F132045FEA915C3FF42D
:1006D000D8AE4FF003025FEADC0C18BF03325FEACA
:1006E000DC0C18BF033202EBDC02C2F1200300FA7B
:1006F00003FC20FA02F001FA03FE40EA0E0021FAA0
:1007000002F11444BDE600BF53B94AB9002908BF3D
:1007100000281CBF4FF0FF314FF0FF3000F074B9DC
:10072000ADF1080C6DE904CE00F006F8DDF804E048
:10073000DDE9022304B070472DE9F047089D044627
:100740008E46002B4DD18A42944669D9B2FA82F284
:1007500052B101FA02F3C2F1200120FA01F10CFAC0
:1007600002FC41EA030E94404FEA1C48210CBEFBF8
:10077000F8F61FFA8CF708FB16E341EA034306FB81
:1007800007F199420AD91CEB030306F1FF3080F010
:100790001F81994240F21C81023E63445B1AA4B25D
:1007A000B3FBF8F008FB103344EA034400FB07F7FF
:1007B000A7420AD91CEB040400F1FF3380F00A8140
:1007C000A74240F207816444023840EA0640E41B35
:1007D00000261DB1D4400023C5E900433146BDE8E1
:1007E000F0878B4209D9002D00F0EF800026C5E983
:1007F000000130463146BDE8F087B3FA83F6002E9B
:100800004AD18B4202D3824200F2F980841A61EB12
:10081000030301209E46002DE0D0C5E9004EDDE730
:1008200002B9FFDEB2FA82F2002A40F09280A1EB18
:100830000C014FEA1C471FFA8CFE0126200CB1FB6D
:10084000F7F307FB131140EA01410EFB03F0884266
:1008500008D91CEB010103F1FF3802D2884200F2F3
:10086000CB804346091AA4B2B1FBF7F007FB101185
:1008700044EA01440EFB00FEA64508D91CEB040423
:1008800000F1FF3102D2A64500F2BB800846A4EB7E
:100890000E0440EA03409CE7C6F12007B34022FA69
:1008A00007FC4CEA030C20FA07F401FA06F31C4398
:1008B000F9404FEA1C4900FA06F3B1FBF9F8200CA5
:1008C0001FFA8CFE09FB181140EA014108FB0EF0EB
:1008D000884202FA06F20BD91CEB010108F1FF3A3B
:1008E00080F08880884240F28580A8F10208614447
:1008F000091AA4B2B1FBF9F009FB101144EA014155
:1009000000FB0EFE8E4508D91CEB010100F1FF34FF
:100910006CD28E456AD90238614440EA0840A0FB97
:100920000294A1EB0E01A142C846A64656D353D06D
:100930005DB1B3EB080261EB0E0101FA07F722FA91
:1009400006F3F1401F43C5E9007100263146BDE8BA
:10095000F087C2F12003D8400CFA02FC21FA03F31D
:10096000914001434FEA1C471FFA8CFEB3FBF7F09E
:1009700007FB10360B0C43EA064300FB0EF69E42C3
:1009800004FA02F408D91CEB030300F1FF382FD25C
:100990009E422DD9023863449B1B89B2B3FBF7F604
:1009A00007FB163341EA034106FB0EF38B4208D9DD
:1009B0001CEB010106F1FF3816D28B4214D9023E1E
:1009C0006144C91A46EA004638E72E46284605E73C
:1009D0000646E3E61846F8E64B45A9D2B9EB02080D
:1009E00064EB0C0E0138A3E74646EAE7204694E79D
:1009F0004046D1E7D0467BE7023B614432E73046D0
:100A000009E76444023842E7704700BFFEE700BFD1
:100A10000B480C4A904203D0121A0B4915F036F8D5
:100A20000A480B4A904203D0121A002115F03CF8F4
:100A300005F02AF814F0F6FF00F076FEFEE700BF9E
:100A4000000000247407002474960108780700242D
:100A5000D8710624704700BF704700BF704700BFC1
:100A6000704700BF704700BF0146044A044B054869
:100A7000002914BF1146194602F016BCA8890108C6
:100A8000AC890108B089010810B5084C08482178E4
:100A900002F00AFC2378074A0133A2FB031202F496
:100AA000FF7101EB52029B1A237010BD440A00240F
:100AB000C4890108ABAAAAAA08B54368013B2DED79
:100AC000028BB0EE408A092B5FD8DFE803F00A15ED
:100AD0001B212C3A40545E05B0EEC00ABDEC028BDF
:100AE00008BDF0EEC07AB7EE007A77EE877A88EE2E
:100AF000270ABDEC028B08BDBDEC028BBDE80840A7
:100B000014F0AEBCBDEC028BBDE8084014F05EB939
:100B1000DFED277A60EE277ABDEC028B60EE677A14
:100B2000A7EE800A08BDF7EE007AB4EEE70AF1EE10
:100B300010FA2ADD87EE807AB0EE000A30EE470A1E
:100B4000CCE7BDEC028BBDE8084014F0E5BCB0EE8C
:100B5000C00AB1EE400A14F011FAB5EEC08AF7EE01
:100B6000007AF1EE10FABDEC028B48BFB1EE400AFC
:100B700037EEC00A08BDF7EE007AB4EEE70AF1EEF0
:100B800010FA05D49FED0B0AA8E7B0EE480AA5E7D6
:100B9000FFEE007AB4EEE70AF1EE10FA02DC9FED08
:100BA000060A9BE79FED030A28EE000A96E700BFBE
:100BB000ABAAAA3ECDCC4C3FCDCC4CBFF0B5082360
:100BC00085B0012600278DF809300C468DF80860A5
:100BD000334632469FED1E0A02990546009702F001
:100BE000A7FB09238DF80C603A468DF80D3005F10E
:100BF00010003B4600979FED160A2E46039904F11C
:100C0000500702F095FBAB7EA3F1FF03B3FA83F329
:100C10005B0985F82130A64606F1640C14341035C2
:100C2000DFED0C7A1436BC42BEE80F00ACE80F00D2
:100C3000DEF80030CCF8003054F8143C54F8102C96
:100C4000C5ED087A6B61AB61EA61E4D105B0F0BD36
:100C5000000000006F12833A10B5044602F09EFBBC
:100C600004F1100002F09AFB237913B1A37A7F2BD1
:100C700014D0A07E94F82130A0F1FF00B0FA80F0EB
:100C80004009834284F8200007D0D4F8B83023B15B
:100C9000984794F8203084F8213010BDD4F8B4304F
:100CA000002BE6D09847E4E701EB810110B500EB9B
:100CB0008104636F012B2DED028BB0EE408A07D0CB
:100CC000022B14D023B1B0EE480ABDEC028B10BD4C
:100CD00094ED1B7AD4ED1C7A77EEC77AA7EE887A6A
:100CE000B0EE478AB0EE480ABDEC028B10BDB5EEFF
:100CF000C00AF1EE10FA15D994ED1B0A14F0B8F9F8
:100D0000F0EE408A94ED1C0A14F0B2F930EE680A55
:100D1000E0EE088AB0EE680ABDEC028BBDE8104038
:100D200014F02CB994ED1B8AB0EE480ABDEC028B8E
:100D300010BD00BF00000000D0ED040AB2EE040AAE
:100D4000DFEDC57A10B50446C0EEA70A2DED068B7F
:100D500014F0F2F994ED027A94ED016A30EE00AAF3
:100D6000B7EEC77AB7EEC66AB0EE408A9FEDB85BC1
:100D700027EE057B87EE069BB7EEC99BB0EE490ACE
:100D800014F0CAFBF0EE408AB0EE490A13F0F0FE10
:100D9000B5EE40AAD4ED037AF0EE409A77EEA77A4A
:100DA000F1EE10FA88EEA79A00F14681F1EECA6AD8
:100DB0002378062B00F24781DFE813F06F0016015D
:100DC0008C00A500BC00DD000700F7EE007AF8EE0D
:100DD000005A78EE274A78EE677A68EE255AB0EE28
:100DE000646AB0EE645AB0EE674AA7EEA96AA7EE4D
:100DF000E95AE4EEE97AA4EEA94AF0EE464AA8EEF2
:100E0000E66AB0EE677AE8EEA64AF0EE457A37EE8B
:100E1000077AA8EEE65AE8EEA67A84ED067A65EE41
:100E2000846A24EE887A26EE088AC4ED096A84ED85
:100E3000075AC4ED057A84ED087A84ED0A8AB0EE8B
:100E4000E77ADFED866AB4EEE67AF1EE10FA00F1A9
:100E5000EA80D4ED085A4FF07E5394ED096AD4ED40
:100E60000A6A85EEA75A94ED067AD4ED074A6361C3
:100E7000C6EE275A86EEA76AC7EE276A84ED085A9F
:100E800084EEA77AC4ED095ABDEC068B84ED0A6A9C
:100E9000C4ED066A84ED077A10BDB7EE007AF6EE6F
:100EA000006AB8EE000A37EE696A79EE077A29EE31
:100EB000800A66EE266A84ED096A37EE497AC4ED47
:100EC000057A84ED060AC4ED086A84ED077AC4ED5C
:100ED0000A6AB4E7B7EE007A0023B8EE000A84EDA0
:100EE000089AF1EE496A636279EE077A29EE800A80
:100EF00037EE497AC4ED0A6AC4ED057A84ED060A34
:100F000084ED077A9BE7B7EE007AB8EE000A79EE37
:100F1000077A84ED087A29EE800A84ED0A7A37EEA2
:100F2000499AC4ED057A84ED090A84ED060A84ED38
:100F3000079A84E7C9EE086AB7EE007AB8EE000AAD
:100F4000F0EE477AB0EE476A29EE800AE9EE487A79
:100F5000A9EE086A84ED090A84ED060AC4ED0A7A4E
:100F600076EE877A37EE667A84ED086AC4ED057A04
:100F700084ED077A63E7F7EE007AB8EE004A78EE80
:100F8000274A78EE677AF0EE645AB0EE645AB0EE13
:100F9000677AE7EEE95AA7EEA95AE4EEA97AA4EE39
:100FA000E97AF0EE654AE8EEE65AB0EE676AE8EEF6
:100FB000A64AF0EE457A2AEE077AA8EEE65AE8EE5F
:100FC000A67A84ED097A66EE046A24EE887A25EE24
:100FD000888AC4ED066A84ED075AC4ED057A84ED6B
:100FE000087A84ED0A8A2AE7B7EE007AF6EE006AFC
:100FF000B8EE000A39EE876A79EE077A29EE800AA0
:1010000066EE266A37EE497AC4ED057AB1EE466A95
:1010100084ED060AC4ED086A84ED077A84ED096A56
:10102000C4ED0A6A0BE70023BDEC068B2362636202
:10103000A362A361E36110BDB0EE4A0A14F072FB33
:10104000F0EE406AB4E6D4ED057AF8E6AFF300803E
:10105000182D4454FB2119400000204277CC2B323C
:1010600070B52DED028BB0EE408A03281CD8DFE866
:1010700000F01E77021E4C48022190ED110AFFF786
:1010800013FEB7EEC07A494853EC172B02F00CF967
:10109000B2EE027AF7EE007A454A464BE8EE077A5E
:1010A000C2ED007AC3ED007ABDEC028B70BD3E4DFF
:1010B000861C0146044605EB0616284696ED010AF5
:1010C000FFF7F2FDB7EEC07A3B4853EC172B02F066
:1010D000EBF82146284696ED010AFFF7E5FDB7EE4D
:1010E000C07A3648364C53EC172B02F0DDF800215D
:1010F000284695ED090AFFF7D7FDD5ED157A314859
:1011000030EE270AB7EEC07A84ED000A53EC172BB5
:1011100002F0CAF8D4ED007A2B4A03212B4B284663
:10112000C2ED007AB7EE007A95ED150ADFED286A78
:10113000C7FEA67AC7FEC77AC3ED067AFFF7B4FDED
:10114000244812F0EDFF284695ED150A0321FFF71C
:10115000ABFD2148BDEC028BBDE8704012F0E0BF52
:101160001148012190ED0D0AFFF79EFDB7EEC07A00
:101170001A4853EC172B02F097F81948BBEE080AEF
:10118000F3EE087A88FE008A88FE678A80ED048A7A
:10119000FFF7D2FD134880ED048ABDEC028BBDE859
:1011A0007040FFF7C9BD00BF840900246C8A0108A4
:1011B0002416062430160624DC890108048A010856
:1011C000480A0024288A0108E00A00244C0A002466
:1011D00000000000A4160624F0160624488A010820
:1011E0003C160624701606242DE9F0412DED068BE1
:1011F000F7EE009A0546B0EE408A0446DFED388AE5
:101200004FF07C5689EE80AA9FED369A243580ED0A
:10121000008A80ED0D8A0027284684ED0B9AA6628D
:1012200040F20118B0EE490A2663C4ED0F8A84ED3E
:101230000EAA13F0D9F9F0EE407A6665B0EE490ACD
:10124000E66504F15006C4ED107A304684ED188A44
:1012500084ED19AA84ED169AC4ED1A8A84F82470D4
:10126000A4F84C8013F0C0F984ED1B0A94ED030A36
:101270002846A4F8788084F8507084F8247084EDAF
:101280000B0A13F0B1F994ED037ADFED177A3046CB
:1012900084ED100A27EE270A84ED160A13F0A4F94C
:1012A000D4ED046A94ED057AD4ED067AC6FEA86AF8
:1012B00087FE287AC7FEA87A87FE697AC7FEE97A90
:1012C000BDEC068B9FED096A84ED1B0AC6FEC66A5B
:1012D00084ED057AC4ED046AC4ED067ABDE8F081B8
:1012E000000000000000C8426666863F3333733F4B
:1012F00010B50446243084ED030A84ED0B0A13F084
:1013000073F9D4ED037A9FED077A04F1500084ED70
:10131000100A27EE870A84ED160A13F065F984EDAA
:101320001B0A10BD6666863F70B5044624302DED5D
:10133000028BB0EE408A12F09DFFD4F88010B5EE1B
:10134000004AF8EE006AD4ED074A07EE901AB7EEAD
:10135000007AF6EE005A94ED055AF8EE673AD4F8A2
:10136000840070EE077AE66F0A1800F1010CE3EED4
:10137000846A06EB800067EEA57AF0EE485A67EEC5
:10138000857AB0EE666AD4ED046AE4EEA65AF0EE11
:10139000476ABCFBF1F5E7EE866A01FB15C5FCEE7A
:1013A000E67A17EE903AD31AB3FBF1F201FB12334F
:1013B00006EB830393ED000AC0ED005AD4ED067AE4
:1013C00084ED070A37EE677AC4F8845027EE800A66
:1013D000A7EE080ABDEC028B70BD00BF38B504460D
:1013E00050302DED028BB0EE408A12F043FFD4F85E
:1013F0008000B5EE004AF8EE006AD4ED084A07EE28
:10140000900AB7EE007AF6EE005A94ED055AF8EE1F
:10141000673AD4F8881070EE077AE56F4218013108
:10142000E3EE846A67EEA57A05EB820CF0EE485A8B
:1014300067EE857AB0EE666AD4ED046AE4EEA65AE9
:10144000F0EE476AB1FBF0F3E7EE866A00FB13119A
:10145000FCEEE67A17EE903AD31AB3FBF0F200FBFB
:101460001233034405EB830393ED000ACCED005ADD
:10147000D4ED067A84ED080A37EE677AC4F888104E
:1014800027EE800AA7EE080ABDEC028B38BD00BF2C
:101490002DE9F04F2DED048B89B014468046744839
:1014A0008946039200F0DCFC714800F0E5FC002C5A
:1014B00000F0D88000266F4D6F4CDFF8CCB1DFF81C
:1014C000CCA13CE0022B9DED060A0DD16B48FFF745
:1014D0002BFF6A488DED060A9DED070AFFF77EFF98
:1014E0008DED070A9DED060A6548013612F0B4FD40
:1014F0009DED070A634812F0AFFD624B604ABFEEF4
:10150000006A5B6BF7EE006A92ED0D7A0793D9F8EB
:10151000003087FE067ADA19D9F8043087FE667A39
:101520003B4482ED007ADDED077AC7FE867AC7FE7E
:10153000E67AC3ED007A039BB34200F09380D5EDC9
:101540000B8AB7EE008AD4ED0B5AB700D5ED086AC6
:10155000D4ED087A95ED066A94ED067AD5ED091A70
:10156000D4ED092A95ED0A2A94ED0A3A95ED0C4A34
:10157000D4ED0C4A9BED000A4348D8E9002302EB66
:10158000860203EB860392ED005A8DED065AE5EED6
:10159000268AD3ED003AD5ED076AE3EEA75AD4EDDB
:1015A000077A26EE686ACDED068A66EEE86A28EECE
:1015B000800A27EE657ACDED075AA5EE216A67EE1F
:1015C000E57AA3EEA27AE5EE026AE3EE837A34EEE0
:1015D000066A34EE877AC5ED0C6AC4ED0C7A85EDA7
:1015E0000B6A84ED0B7AFFF767FA9BED027AF0EE57
:1015F000406A9DED079A78EE477A9AED000A2348F3
:1016000029EE000A67EEA87AE6EE877ACDED067A33
:10161000FFF752FADAED027A1D4B38EE678A1B7833
:1016200028EE098A012BA0EE278A8DED078A7FF428
:1016300049AF05AB07AA06A91648009304AB13F0FF
:101640001FF99DED060ADDED077ADDED046A9DEDDB
:10165000057A30EE260A77EE877A8DED060ACDED13
:10166000077A41E709B0BDEC048BBDE8F08F00BFFD
:10167000940700243C160624701606244C0A002405
:10168000A4160624F0160624241606243016062472
:10169000440A0024E00A002470B51E4E002534469A
:1016A00029461D4800F0EAFBD4ED097AD4ED0B5A27
:1016B00070EE676A94ED0A7A94ED0C6AE6EEA57A0C
:1016C00037EEC77AC4ED097AB0EEC77AB4EEC67ABF
:1016D000F1EE10FA0EDC01351034042DE0D10D4886
:1016E000FFF7BAFA0D490E4A0E4BC6E92E21C6F88D
:1016F000B43070BD0748B0EE670A2946C4ED0A7AD7
:10170000FFF7D2FAD6F8BC302846002BE3D0984732
:10171000E1E700BF84090024940700246110000859
:10172000690A0008890A000880B5764894B000F07C
:10173000EDF904217348F7EE008A00F039FB03212C
:101740007048002600F05EFB012001F0BBFD9FED1C
:101750006E9A6E48F2EE049A01F0A6FD694800F018
:101760007BFBB0EE490A6A48062712F051FCB0EE46
:10177000490A684812F04CFC9FED670A6448674DBF
:1017800012F032FD9FED640A624812F02DFD9FEDCC
:10179000648A644A0321644B284651605960C2ED53
:1017A000008AC2ED028AC3ED008AC3ED028A85ED8C
:1017B0000C8A85ED0B8A9FED5DBA85ED019A2E703E
:1017C000FFF7BAFAD5ED017A2846DFED59AA67EEA0
:1017D0008B7A584CCAFEA9AACAFEE77AC5ED027AEE
:1017E000FFF7AAFA2846DFED547A9FED54AA8AFE45
:1017F00027AA8AFE69AA85ED03AAFFF79DFA284663
:10180000F3EE087AFBEE089AC8FE299AC9FEE79A19
:10181000C5ED049AFFF790FA28462F70FFF78CFA6F
:10182000204684ED0C8A84ED0B8A84ED019A2670A3
:10183000FFF782FAD4ED017A2046414D67EE8B7AAC
:10184000CAFEE7AAC4ED02AAFFF776FA204684EDA5
:1018500003AAFFF771FA2046C4ED049AFFF76CFA69
:1018600020462770FFF768FAB0EE490A2846354C43
:1018700012F046FF344BB0EE490A204685ED008A4F
:101880006B60FFF7B1FC4FF40063304A20469FEDD8
:10189000220AC4F88030E267C4F88460C4F890601B
:1018A000C4E92266FFF724FD5022294968469FEDCE
:1018B000296AB6EE007ADFED287A87FE087ADFED36
:1018C000276A87FE687AC6FE886A84ED067AC6FEB5
:1018D000C66A87FE888AC4ED046AC8FE688AC4EDB9
:1018E000058A14F0D3F869461D48FFF767F91D49CA
:1018F000044800F059FAFFF7CFFE0A2003F0DCFE9F
:10190000F9E700BF9407002400803B47908A010854
:10191000A4160624F0160624CDCCCC3E3C16062494
:101920000000000024160624301606246666E63EF3
:1019300000409C45701606240AD7233CF4FD343F32
:10194000E00A00244C0A002400A08C46000000C0DD
:10195000BC8801083333733F9A99593F9A99193FCC
:101960008409002491140008F8B52B4800244FF690
:101970000B732A4D2A4E2A462A49046284622A4F52
:10198000C0E96C34C0E97234C0E90344C0E96E4474
:10199000C0E9744413F0E4F85022244906F16400CD
:1019A000348414F073F82A4630462149C6F8BC4006
:1019B000C6E92D4413F0D4F82A4639461D4813F0E1
:1019C000CFF82A4639461C4813F0CAF800241B4BAE
:1019D0001B4A1C499A601C61D960DC621C631A4B6B
:1019E0001A489A602A46D9601C61DC621C63184957
:1019F00013F0B6F817484FF07C5317492A46174D95
:101A0000C4610161C3608361456104621449BDE83A
:101A1000F84013F0A5B800BF94070024000000248C
:101A200084090024590A0008550A00080C89010895
:101A30005D0A0008A4160624F01606243C160624A7
:101A400000007A44F4FD343F70160624E00A0024B6
:101A5000610A00084C0A00249A99993E3333333FB7
:101A6000650A000800294ED0274BF0B5D0E90024C4
:101A7000481E03F10C0E951C03F1100C4E00AC42F5
:101A800018BF052802EB41058CBF012000206245EC
:101A900038BFAE452CBF01270027384227D0264447
:101AA000644538BFB64522D39D890026D8894FEAC0
:101AB000510E65F30F06A44602EB8E0E65F31F462A
:101AC000002560F30F0560F31F45104640F8046BD6
:101AD00070454CF8045BF9D121F00100C90705D528
:101AE000998922F81010DB8924F81030F0BD023AF1
:101AF000023C023D998922F8021FAA42D98924F8A2
:101B0000021FF7D1F0BD70473C1706242DE9F043C2
:101B100040F20113964A012706462DED028BDDB0F7
:101B2000C0F8EC21ADF81C30002306978DF81E306C
:101B300003F060FF044603F0C1FD06A90546002836
:101B400040F00081002C00F0FD8030468DF81E70C2
:101B500003F0D6FE072C0DF198080DD0854906F14B
:101B60000C00854B854ACDE9261301234146289276
:101B7000ADF8A43003F000F8032201234FF0000970
:101B80001CA904A806F11005CDF870904446CDF8C4
:101B900010905CAFCDE9202300220123CDE9222360
:101BA000774B01221D9303F1007303F540731E93DD
:101BB0004FF44173ADF87C300023CDE9242303F0CA
:101BC0005BFB01230CA905A80C930E931023CDF801
:101BD00014908DF840306B4BCDF83C900D9302F093
:101BE0005FFD059906F1200000F062F94FF07E5389
:101BF0003020049A0A9308A90B930323CDE9080324
:101C0000284601F047F9284601F08EF92846B0EE43
:101C1000408A01F077F9D0ED007A0DF1580CDFF829
:101C200084E1F8EE677A6546BEE80F0088EE277A11
:101C3000ACE80F009EE803008CE8030086ED7A7A9A
:101C400035F8023B204612340222ADF80C300399DD
:101C500001F076FCA742F3D106F1140704230C220D
:101C60004146384606F1300500249FED478A01F0D1
:101C70007BFC09E001F09CFE96ED7A0A01462846BD
:101C8000013401F0FFF92035072CE1B23846F1D9D3
:101C9000E1B2013401F08CFE00230146F0EE480A67
:101CA00028461A4696ED7A0A01F0BAF90C2CEAD1C8
:101CB0003046364B40F82C3F02F088FA344B012274
:101CC00006F5D870196801F063FA324B012206F567
:101CD000E470196801F05CFA2F4B06F5F070C6F855
:101CE000E03102F073FA2D4B06F5F270C6F8E431DC
:101CF00002F06CFA0123D6F8EC0111A9CDE91333F7
:101D0000022310301293002315934BF68033119366
:101D100002F0A2F8384601F035FED6F8EC41237DFA
:101D200004F11005FBB928461D4D2368D4E90112C2
:101D3000009502F00FF9012323755DB0BDEC028B15
:101D4000BDE8F083304603F0DBFD25B106F1080065
:101D500000F0B0F9FEE6002C7FF4FCAE06F10800BE
:101D600000F0A8F9F6E6284602F02AF9DBE700BF02
:101D70003C1706240508050905070506050A060699
:101D800004020404010A010B6F12033B0207010065
:101D9000B08A0108AC8A0108020E0100020D0100A0
:101DA000651A00085C890108103001F005B900BF10
:101DB000F8B500F11007054600F1300400F5D876BB
:101DC00038462DED028B01F0A1F8384601F0ACF851
:101DD0003846B0EE408A01F095F8D0ED007AF8EE82
:101DE000677A88EE270A85ED7A0A01E095ED7A0A8E
:101DF0002046203401F0A0F9B442F7D1BDEC028BAB
:101E0000F8BD00BFF8B500F11007054600F1300439
:101E100000F5D87638462DED028B01F089F838466A
:101E200001F082F83846B0EE408A01F06BF8D0ED50
:101E3000007AF8EE677A88EE270A85ED7A0A01E0E3
:101E400095ED7A0A2046203401F076F9B442F7D1B4
:101E5000BDEC028BF8BD00BF143001F093BD00BF94
:101E600038B500F1300400F5D8752046203401F073
:101E70003FF9AC42F9D138BD704700BF00EB4111CA
:101E800091ED0F0A704700BF07490022074B01F18F
:101E9000600010B4302459601A611C601A755DF836
:101EA000044BC3E902027047000000303C170624CF
:101EB000F0B58C2387B00160002203710124FA265B
:101EC000194605AB8DF81420029640220093234654
:101ED0000194054602F07AFC002840F09B809DF8B2
:101EE00014300DF117074022284603F07F030097B6
:101EF000CDE901468DF814308DF817302346297945
:101F000002F08AFC002840F08580042003F0D4FB16
:101F100005AB4022284600932346CDE901462979A6
:101F200002F054FC002875D19DF81430402200972F
:101F3000284603F0BF03CDE901468DF814308DF833
:101F400017302346297902F067FC002862D104206B
:101F500003F0B2FB0DF115034322284600932346FC
:101F6000CDE90146297902F031FC002852D10DF16A
:101F700016034822284600932346CDE901462979D5
:101F800002F024FC002845D19DF81530432200972B
:101F9000284643F001038DF815308DF817309DF871
:101FA000163043F00103CDE901468DF81630234683
:101FB000297902F031FC68BB9DF816304822009761
:101FC00028468DF817302346CDE90146297902F0DD
:101FD00023FCF8B905AB4022284600932346CDE9FF
:101FE0000146297902F0F2FBA0B99DF8142023469E
:101FF0000194284602F0CF040296009740222979E6
:102000008DF814408DF8174002F006FC003818BF18
:10201000012000E0012007B0F0BD00BFF0B51023A3
:1020200087B0234C012200250126002702A9204663
:102030000195CDE902234FF48052CDE904670BF0FE
:102040000FFB642004F014FB02A94FF480522046D9
:10205000CDE9046702261027CDE902670BF000FBEB
:102060000322102302A92046CDE9022300230422E3
:10207000CDE904234FF480520BF0F2FA40F2322300
:10208000042202A9019310232046CDE90223019ADC
:10209000012305924FF4805204930BF0E1FA40F6CD
:1020A000060120460BF0FCFA284607B0F0BD00BF41
:1020B0005C1706241C4B00221C494FF0400C30B525
:1020C000054689B00220596007219A601A620124EE
:1020D000DA620A224FF4006EDC6006922022CDE91B
:1020E000000104200821CDE9020103201021CDE9DF
:1020F000040108206946C3E904024FF4C072181DA8
:10210000C3E906C24FF48052C3E909E20BF07EFA3C
:1021100038B92846FFF782FF003818BF012009B000
:1021200030BD204609B030BD58170624404100524A
:10213000614A0021D0B513688EB00A91002B40F09F
:10214000B9805E4B01214FF683700C24116002218F
:10215000D3F8D4200026032742F48052C3F8D420B9
:10216000D3F8D42002F480520092009AD3F8E020F1
:1021700042F01002C3F8E020D3F8E02002F0100291
:102180000192019AD3F8E02042F04002C3F8E02027
:10219000D3F8E02002F040020292029AD3F8E02045
:1021A00042F00802C3F8E020D3F8E02002F0080271
:1021B0000392039AD3F8E02042F48072C3F8E0203F
:1021C000D3F8E02002F480720492049AD3F8E0205D
:1021D00042F08002C3F8E020D3F8E02002F0800251
:1021E0000592059AD3F8E02042F02002C3F8E020DF
:1021F000D3F8E02002F020020692069AD3F8E020FD
:1022000042F00402C3F8E020D3F8E0300C9403F06D
:10221000040307930323079A0B93CDE9080108A948
:10222000274806F091FB48F23712022308A92548F7
:102230000C94CDE90823CDE90A6706F085FB4CF242
:102240000372022308A920480C94CDE90823CDE9A4
:102250000A6706F079FB40F2FF62022308A91B48D7
:102260000C94CDE90823CDE90A6706F06DFB4FF623
:102270000C72022308A916480C94CDE90823CDE975
:102280000A6706F061FB4FF63F02022308A91148D6
:102290000C94CDE90823CDE90A6706F055FB20220E
:1022A000022308A90A480C94CDE90A67CDE908235E
:1022B00006F04AFB0EB0D0BD541706240044025865
:1022C0000010025800180258000C02580020025852
:1022D000001C0258001402582DE9F04FDFF810845A
:1022E00006460D46144608F118002DED028B89B004
:1022F00000AF03F0B9F8D8F8183073B3D8F81C3031
:10230000D8F80490002B43690BBF4FF0080A4FF038
:10231000100A4FF0020B4FF0040BB9F1000F2AD056
:10232000A200EA46012B02F1070222F00702ADEB00
:10233000020D6846ADEB020D694600F03F81022BAD
:1023400000F0D680002B6FD02246C847D5462437F0
:10235000BD46BDEC028BBDE8F08FD8F81C30002BD9
:10236000F5D0D8F804904FF0080A4FF0020B4369FB
:10237000B9F1000FD4D1FB61D8F80030BB61002B5C
:10238000E5D0D54803F0E2F86B46BBF1020F786167
:1023900008EE103AFB6900F083816A465146A2EBD1
:1023A000C40295466200EA46B2FBFBF2AAEBC40007
:1023B00085460AEB8200EE46F861ADEB010DF86947
:1023C0000EEB820CC7F810C0EC46ADEB010D00EB34
:1023D0008201CCF80400CCF8081001EB82013869C6
:1023E000E946CCF80C1000EB8201CCF800A001EB20
:1023F0008202C9E900E0C9E90212012B00F06483FE
:10240000022B00F06C82002B00F0808162084946AC
:102410006046BB69984718EE103A24379D46BD4682
:10242000BDEC028BBDE8F08F002C8DD01A46D8EDA4
:102430000C6A9FEDB27A8446331D36F922E00CF126
:10244000080C07EE90EA33F922E00232F8EEE77A60
:10245000944267EE877A67EEA67A4CED027A07EE31
:1024600090EAF8EEE77A67EE877A67EEA67A4CEDA7
:10247000017AE2D8F9612246C847984ED8ED0D6A34
:102480000020F9692B1D9FED9E7A9FED9E6ADFED7E
:102490009E5A22E0F4EEC67AF1EE10FAC0F2C88439
:1024A00047F6FE72D1ED017A45F8202066EEA77A54
:1024B000F4EEC77AF1EE10FA40F2F080F4EEC67A4C
:1024C000F1EE10FAC0F2D58447F6FE7243F82020F0
:1024D0000230083184427FF639AFD1ED007A66EEE2
:1024E000A77AF4EEC77AF1EE10FAD3D83246D9E7DC
:1024F000002C3FF429AFD8ED0C6A84469FED787A22
:102500000022331D8E4656F822100CF1080C07EEFF
:10251000901A53F822100232F8EEE77A944267EEEE
:10252000877A67EEA67A4CED027A07EE901AF8EEFB
:10253000E77A67EE877A67EEA67A4CED017AE2D801
:1025400071462246C7F81CE0C847664ED8ED0D6AB2
:102550000020F9692B1D9FED6A7A9FED6A6ADFF80A
:1025600094C120E0F4EEC67AF1EE10FAC0F279845C
:102570003246D1ED017A45F8202066EEA77AF4EED6
:10258000C77AF1EE10FA40F28780F4EEC67AF1EEE7
:1025900010FAC0F25E84324643F82020023008313F
:1025A00084427FF6D3AED1ED007A66EEA77AF4EEE0
:1025B000C77AF1EE10FAD5D86246DAE7002C3FF47C
:1025C000C3AED8ED0C6A86469FED477A4FF0000CFB
:1025D000331D56F82C200EF1080E82F40002A2F5ED
:1025E000000207EE902A53F82C200CF1020CF8EEB2
:1025F000E77A82F400026445A2F5000267EE877A6A
:1026000067EEA67A4EED027A07EE902AF8EEE77AA8
:1026100067EE877A67EEA67A4EED017AD9D8F9612E
:102620002246C847314ED8ED0D6A0020F9692B1DAE
:102630009FED337A9FED336ADFF8BCC01FE0F4EE04
:10264000C67AF1EE10FAC0F2FC833246D1ED017A7F
:1026500045F8202066EEA77AF4EEC77AF1EE10FA7C
:1026600018D9F4EEC67AF1EE10FAC0F2DA833246E7
:1026700043F820200230083184427FF667AED1ED66
:10268000007A66EEA77AF4EEC77AF1EE10FAD6D8A1
:102690006246DBE76246EBE762467DE7324615E7D6
:1026A000A100D6466208073121F00701ADEB010D0C
:1026B000EA46ADEB010D6946ADEB0E0D0AEB82006B
:1026C000EC46ADEB0E0D01EB8202F861E946CCE978
:1026D00000A0C9E9001290E6AC1706240280FFFFB3
:1026E000000000300082FF7F0000003482FF7F0086
:1026F00090170624007E00807E0080FF00000038D6
:1027000004FF7FBF04FF7F3F00FEFF46002C00F068
:10271000C982BBF1020FD8F8242000F0FA8279694F
:10272000C7F8049002EB810E5FED0C5A8A00DCF8CA
:1027300008100EF104007A611A46DCF80C303B6197
:10274000331DD7F810903D61FD69C7E902CB8C4677
:10275000834636F92210D8ED0C7A06EE101A33F9BA
:10276000221006EE901A3EF92210B8EEC66A07EE65
:10277000101AF8EEE66A3BF92210B8EEC77A26EE98
:10278000256A66EEA56A27EE257A26EE276A66EEAA
:10279000A76A27EE277A07EE901A51080232F8EE60
:1027A000E77A0AEB8100944280ED006A05EB810034
:1027B00067EEA57AC0ED006A0CEB810009EB8101A0
:1027C00080ED007A98ED0C7A67EE877AC1ED007A99
:1027D000BFD8D7F804903D69D7E902CB60466208BC
:1027E000BB6949469847D8F82C307A69D8ED0D6A0C
:1027F0001A441FED3D7A1FED3D6A2B1D904602F1F4
:10280000040A5FED3F5A0022A84ED9E900EC51E0DE
:10281000F4EEC67AF1EE10FAC0F2C78247F6FE7007
:1028200045F822000CEB0100D0ED007A66EEA77AA5
:10283000F4EEC77AF1EE10FA4BD9F4EEC67AF1EE67
:1028400010FAC0F2BA8247F6FE70BBF1020F43F8ED
:1028500022002BD0D9F808000844D0ED007A66EEAB
:10286000A77AF4EEC77AF1EE10FA36D9F4EEC67A0A
:10287000F1EE10FAC0F2CD8247F6FE7048F8220061
:10288000D9F80C000144D1ED007A66EEA77AF4EE97
:10289000C77AF1EE10FA1ED9F4EEC67AF1EE10FA0C
:1028A000C0F2AF8247F6FE714AF82210023294421B
:1028B0007FF6B1AD51080EEB81008900D0ED007AB2
:1028C00066EEA77AF4EEC77AF1EE10FAA0D8304699
:1028D000A6E73046B9E73146E6E73046CEE7002CBA
:1028E00000F0E081BBF1020FD8F8243000F0E18164
:1028F0007A69DCF8081003EB820EC7F804909300A5
:10290000DFED6B5A0EF1040000227B61DCF80C3025
:102910003B61331DD7F810903D61FD69C7E902CBDB
:102920008C46834656F82210D8ED0C7A07EE101A22
:1029300053F82210B8EEC76A07EE101A5EF822109C
:10294000F8EEC76A07EE101A26EE256A5BF8221029
:10295000B8EEC77A66EEA56A26EE276A27EE257AD4
:1029600066EEA76A27EE277A07EE901A5108023220
:10297000F8EEE77A0AEB8100944280ED006A05EBFD
:10298000810067EEA57AC0ED006A0CEB810009EBCF
:10299000810180ED007A98ED0C7A67EE877AC1EDBF
:1029A000007ABFD8D7F804903D69D7E902CB6046DA
:1029B0006208BB6949469847D8F82C307A69D8ED47
:1029C0000D6A1A449FED3E7A9FED3E6A131D9246B2
:1029D000DFF8E4C00022FB612B1D364ED9E9008EE2
:1029E0004EE0F4EEC67AF1EE10FAC0F2FC81304609
:1029F00045F822000EEB0100D0ED007A66EEA77AD2
:102A0000F4EEC77AF1EE10FA49D9F4EEC67AF1EE97
:102A100010FAC0F2EF813046BBF1020F43F82200FA
:102A20002AD0D9F808000844D0ED007A66EEA77ADB
:102A3000F4EEC77AF1EE10FA35D9F4EEC67AF1EE7B
:102A400010FAC0F2C98130464AF82200D9F80C00C9
:102A50000144D1ED007A66EEA77AF4EEC77AF1EE82
:102A600010FA1ED9F4EEC67AF1EE10FAC0F2AD817A
:102A70003146F86940F82210023294427FF6CBAC1E
:102A8000510808EB81008900D0ED007A66EEA77A44
:102A9000F4EEC77AF1EE10FAA3D86046A8E76046D4
:102AA000BAE76146E5E76046CEE700BF0280FFFF78
:102AB000000000300082FF7F007E008000000034B4
:102AC00004FF7FBF04FF7F3F002C00F0EB807A699A
:102AD0000021D8F82430C7F8109003EB820ED7F805
:102AE0001C909300FD610EF104021FED0C6A7B61E6
:102AF000331D154656F821204808D8ED0C6ABBF165
:102B0000020F82F40002A2F5000207EE902A53F8A9
:102B1000212082F40002B8EEE77AA2F5000227EE47
:102B2000067A07EE902A0AEB8002F8EEE77A27EEA3
:102B3000267A67EE867A82ED007A09EB80024FEA08
:102B4000800067EEA67AC2ED007A27D05EF82120D9
:102B500082F40002A2F5000207EE902A55F8212027
:102B600082F40002B8EEE77AA2F5000227EE067AB8
:102B700007EE902ADCF80820F8EEE77A024427EE08
:102B8000267A67EE867A82ED007A98ED0C7ADCF888
:102B90000C2067EE877A0244C2ED007A02318C4243
:102BA000A8D8D7F8109060466208BB694946FD690D
:102BB0009847D8F82C307A69D8ED0D6A1A441FED81
:102BC000407A1FED406A131D9246DFF8C4C200220E
:102BD000FB612B1DAB4ED9E9008E4EE0F4EEC67AB8
:102BE000F1EE10FAC0F2C580304645F822000EEB37
:102BF0000100D0ED007A66EEA77AF4EEC77AF1EE26
:102C000010FA49D9F4EEC67AF1EE10FAC0F2BF809C
:102C10003046BBF1020F43F822002AD0D9F8080051
:102C20000844D0ED007A66EEA77AF4EEC77AF1EEAA
:102C300010FA35D9F4EEC67AF1EE10FAC0F2AE8091
:102C400030464AF82200D9F80C000144D1ED007A50
:102C500066EEA77AF4EEC77AF1EE10FA1ED9F4EE1A
:102C6000C67AF1EE10FAC0F28B803146F86940F86E
:102C70002210023294427FF6CEAB510808EB81005D
:102C80008900D0ED007A66EEA77AF4EEC77AF1EE0D
:102C900010FAA3D86046A8E76046BAE76146E5E7C0
:102CA0006046CEE7224649466046BB699847FFF733
:102CB000B2BBC7F810B0002298ED0C6A331DDFEDEF
:102CC000726AD7F81CB0786956F8221007EE901A8D
:102CD00053F82210B8EEE77A07EE901A5108023244
:102CE000F8EEE77A27EE267A0AEB810E94420BEB98
:102CF000810167EEA67A27EE067A67EE867A8EED78
:102D0000007AC1ED007ADFD88300D7F810B07B617C
:102D10004DE61A46C7F810B098ED0C6A331DDFED8A
:102D20005B6AD7F81CB0786936F9221007EE101AE2
:102D300033F9221007EE901AB8EEC77A5108023222
:102D4000F8EEE77A27EE267A0AEB810E94420BEB37
:102D5000810167EEA67A27EE067A67EE867A8EED17
:102D6000007AC1ED007ADFD88300D7F810B07B611C
:102D700034E5F0EE675AFEEEE45A15EE900A34E7B9
:102D8000F0EE675AFEEEE45A15EE901A6EE7F0EE9A
:102D9000675AFEEEE45A15EE900A3AE7F0EE675AEB
:102DA000FEEEE45A15EE900A4BE767EEA57AFDEECB
:102DB000E77A17EE900A00B232E567EEA57AFDEEEB
:102DC000E77A17EE900A00B23FE5F0EE675AFEEEA2
:102DD000E05A15EE901A4CE6F0EE675AFEEEE05A15
:102DE00015EE900A30E6F0EE675AFEEEE05A15EE68
:102DF000900AFDE5F0EE675AFEEEE05A15EE900AF5
:102E00000AE667EEA57AFDEEE77A17EE901A09B2A8
:102E10004AE567EEA57AFDEEE77A17EE900A00B272
:102E20002CE5F0EE675AFEEEE45A15EE902A1FE408
:102E300067EEA57AFDEEE77A17EE902A12B2FFF759
:102E400031BBF0EE675AFEEEE45A15EE902AFFF71A
:102E5000FDBBF0EE675AFEEEE05A15EE902AFFF742
:102E60009BBBF0EE675AFEEEE05A15EE902AFFF794
:102E700080BB67EEA57AFDEEE77A17EE902A12B2D4
:102E8000FFF724BB82FF7F00000000300000003805
:102E90007E0080FF30B5184C154685B0046004F103
:102EA000080EEC460FC98EE80F00D4ED047AF5EE5B
:102EB000C07A8CE80F00F1EE10FA1ADDB7EE006A66
:102EC00094ED057A27EE277AC6EE276A84ED0D7A0F
:102ED000C4ED0C6A6DB1204640F8185F02F0C4FAE8
:102EE000064903690020064A2162A262E36005B038
:102EF00030BD012005B030BD90170624C020003041
:102F0000C000003000680830704700BFB1F5807F16
:102F100003680A4628BF4FF48072B1F5807F9A603B
:102F200094BF0020012070470068183002F0FCBAFE
:102F300070B504688AB0A369E160CBB104F11805EB
:102F4000284602F091FA8446EE46E668BCE80F0097
:102F5000AEE80F00BCE80F00AEE80F009CE80300ED
:102F60008EE8030069462846049602F085F9F8B910
:102F7000E069D8B104F11C05284602F075FA8446D0
:102F8000EE46E468BCE80F00AEE80F00BCE80F00B6
:102F9000AEE80F009CE803008EE80300694628466F
:102FA000049402F069F9003818BF01200AB070BD1E
:102FB00001200AB070BD00BF30B5046883B00D4673
:102FC000E3694BB1A3680020E26A616A9B0000904C
:102FD00004F11C0002F04AFAA3680748A26A9B00A9
:102FE000216A009004F1180002F040FA0020C4E9C0
:102FF000005003B030BD00BFD922000810B4074B09
:103000004FF07E5130240022032019619C60D8606B
:103010005DF8044B5961C3E90622704790170624F6
:10302000F6EE007A9FED166A20EE207A0160F7EE48
:10303000006A80ED036A80ED020A27EE277AC6EE69
:10304000877AF4EEE67AF1EE10FA11DDF0EE667AA8
:103050004FF07E514FF0000C02760022C0ED017A55
:10306000C0F814C0016143768276C0ED070A70474C
:10307000F4EEC67AF1EE10FAEAD5F0EE467AE7E71A
:1030800000000000DFED187AB6EE007AF7EE006A75
:103090009FED166A60EE277A016080ED036A80ED8D
:1030A000020A67EE877A86EEA77AB4EEE67AF1EE48
:1030B00010FA10DDB0EE667A4FF0804C4FF07C5184
:1030C0004FF48072012380ED017AC0F810C0416195
:1030D000028383767047B4EEC67AF1EE10FAEBD530
:1030E000B0EE467AE8E700BF6F12033B0000000035
:1030F0000268037E128807EE902AFBEEC87A1BB1A5
:10310000B7EE007A77EE677AD0ED056A90ED047A33
:1031100077EEE67A437E67EE877A0BB1F1EE677A57
:1031200090ED030A90ED017A77EEC07AA7EE270AB8
:1031300080ED030A704700BF837E80ED020AABB9C1
:10314000D0ED077A27EE800AF6EE007AB7EE007A25
:1031500020EE270AC7EE007AF4EEC77AF1EE10FAF5
:1031600007DDF0EE477AC0ED017A7047DFED067AB1
:10317000E8E7F5EEC07AF1EE10FAF4D5DFED037A68
:10318000C0ED017A704700BF6F12033B00000000E2
:1031900070B584B0002504461646ADF80C102B46D9
:1031A0002A460399009500F02BFFA582A67504B06E
:1031B00070BD00BF704700BFF8B5134F3C687F2C4F
:1031C00007D98023114A42F224411C463B60A2F8F1
:1031D0007E100F4D2B68012B0AD90C4E0D4D224647
:1031E0003146284600F090F90028F8D13860F8BD43
:1031F00022460649074800F087F90028F7D12B68D6
:10320000386001332B60F8BDCC170624D017062494
:10321000C81706245018062430B4154C2168F1B1A3
:103220004B1E144DE81810F801298C4619460A2A3D
:1032300001D00D2A02D14BB1013BF4E70CF102039E
:103240007F2B10D98023236030BC704701220223DA
:1032500023600D200A236854AB5430BC7047012210
:103260000223044DF4E70CF101026146F0E700BFD0
:10327000CC170624D017062410B5094C02460B467D
:10328000084821680844C1F1800113F0FDF9236862
:1032900018442060FFF7C0FFFFF78EFF10BD00BF8E
:1032A000CC170624D01706240FB400B583B004A9A8
:1032B00051F8040B0191FFF7DFFF03B05DF804EB59
:1032C00004B0704710B5044600210A4800F096F893
:1032D000002C094B14BF0222002208481A60FFF795
:1032E000E3FF0748FFF7E0FF0A20BDE8104002F0C7
:1032F000E3B900BF50180624C8170624B48A010891
:10330000C48A0108064A0749074808B511F028FC95
:10331000034A04490548BDE8084011F021BC00BF3C
:1033200000000024B5310008501806245418062463
:10333000F0B51D4683B004461646A5F101059DF87B
:103340002070ADF8041002F0B5F9B5FA85F5002348
:10335000BDF80420012F4FEA551566712060E57213
:10336000E2802371A372237209D0022F0FD00123B0
:10337000A01D637203B0BDE8F04000F027BF022338
:10338000A01D637203B0BDE8F04000F01FBFA01D98
:10339000637203B0BDE8F04000F018BF38B50446D2
:1033A00002F088F9002223682271834210D00122A2
:1033B000A57AE37A954020602271A01D6DB243B9D1
:1033C00000F0E0FF40B22843C0B27F28A0720AD0CC
:1033D00038BD00F0D7FFB0FA80F040092843C0B2F2
:1033E0007F28A072F4D102F065F907EE900AF8EE9A
:1033F000677AC4ED037A38BD704700BF012910B564
:1034000006D0022915D051B1BDE8104007F03EBAF0
:103410000A46344834490BF059FEE8B1FEE7334B15
:103420000A46334C334934481C600BF04FFE68B1F8
:10343000FEE701222C492B480BF048FE00B1FEE7C5
:103440002E4928480BF064FEC0B1FEE72B492A48FC
:103450000BF05EFE60B1FEE7284922480BF058FEF3
:1034600000B1FEE726491F480BF0E0FD08B3FEE778
:10347000244921480BF0DAFDA8B1FEE7204919489C
:103480000BF0D4FD00B1FEE716480BF057FE0246E4
:1034900040B9164B164C174917481C600BF016FE26
:1034A00068B1FEE7FEE714480BF048FE0028ABD0F9
:1034B000FEE70C480BF042FE0028A5D0FEE70F49BE
:1034C0000D480BF025FE00B1FEE70E490A480BF04F
:1034D000ADFD00B1FEE708480BF030FE002893D0A8
:1034E000FEE700BFF41A0624A0000024901D062465
:1034F000F933000884000024581806240801002429
:103500006400002454000024084691B208B502F07B
:10351000ABFB003818BF012008BD00BF014806F012
:1035200093BC00BFF0490624014806F08DBC00BFE3
:10353000F0490624014806F087BC00BFF049062484
:1035400000B583B04FF0000E4FF0030C4274ADF89D
:103550000410BDF8043080F810E0A0F802C0038029
:1035600003B05DF804FB00BF2DE9F04FDFF81C83CA
:1035700000258DB0C04C037008F14003426007463F
:1035800001920E46202229464046C4F86831C4F80C
:103590006481CDE90255CDE90455CDE90655CDE963
:1035A0000855CDE90A5512F07FFA2022294604F584
:1035B000A170C4F83151C4F83551C4F83951C4F878
:1035C0003D5112F071FA019B84F8485284F8303171
:1035D0007A68002A6AD02B4604F59871454606F1B0
:1035E000100A9E46F01856F803B0E2180EF1010ECC
:1035F000D0F80CC0D0F80490D0F8088044F803B09C
:10360000C2F80CC04FF0000CC2F80490C2F8088059
:10361000008A25F802CB10821AF8032001F8012F46
:10362000002A70D07A684FF001001233724584F896
:103630004802D7D84FF4802290489DF804300821E2
:103640004FF000084FF00009C4F884310023C4E9AA
:103650005B020122C4F8743184F88031C4E95E2130
:1036600094F84812C4E96489A9B3C4F898210022E7
:1036700084F8813184F888313B78C4E96722002BD3
:1036800038D0012200200121013B84F8A421C4E9A3
:103690006C01082B30D8DFE813F0BD00C200C70072
:1036A000CC00D100D600DB00E100E8009DF804303A
:1036B0000121C4F87421C4F884314FF4802384F8C4
:1036C00080216E4AC4E95B2308230022C4E95E130B
:1036D0000023C4E964230123002284F881310023FC
:1036E00084F888310323C4F898313B78C4E9672211
:1036F000002BC6D184F8A431614803F0F1FB0346E6
:1037000038B1FFBEFEE77A68123372453FF66AAF02
:1037100090E702A95A48029303F040FD8246002830
:1037200076D1042240F2FF710A90CDE9081294F894
:103730003021002A00F0F3804FF006080AEBCA039C
:103740004FEACA0904EB43035B7C072B07D8DFE889
:1037500003F0595C5653504D4A04072307930FFA60
:103760008AF6D14406EBC60604EB490904EB46078A
:103770007500384600F02AFD99F81030042B00F34C
:10378000AA80022B00F3BD8000F0B98004EB0A038D
:10379000002283F8202114F81630002B78D0022B59
:1037A00000F08A80012B40F0B2807B78012B00F082
:1037B000B080002B334B18BF002305A93048CDE95A
:1037C000053802F0B9FF002840F0AC800AF1010A88
:1037D00094F830315FFA8AFA534540F2A0802A4BC0
:1037E00053F82A80AAE706230793B8E7052307932F
:1037F000B5E704230793B2E703230793AFE7022358
:103800000793ACE700230793A9E701230793A6E7F3
:10381000FFBEFEE703224023C4E96A236CE70722C8
:103820006023C4E96A2367E70F228023C4E96A237F
:1038300062E71F22A023C4E96A235DE73F22C02379
:10384000C4E96A2358E77F22E023C4E96A2353E7E7
:10385000FF224FF48073C4E96A234DE740F2FF1260
:103860004FF49073C4E96A2346E740F2FF324FF405
:10387000A073C4E96A233FE7981D06240020024094
:10388000041F06240002B025D48A0108C04000307D
:103890007B78062B37D0072B3DD0022B4AD0032B49
:1038A0004AD0002B4CD0012B48D0042B4AD0052BFA
:1038B000254B18BF002380E77B78042B25D0052BF0
:1038C0002BD08BB3012B31D0022B31D0032B1F4BCC
:1038D00018BF002371E70323043504EB0A0B4FF0F4
:1038E000000925448BF82031284609F1010900F030
:1038F0006DFC9BF8203104354B45F5DC4BE701238B
:10390000EAE70223E8E7124B57E7124B55E700239B
:1039100053E7114B51E7114B4FE7114B4DE70DB0FA
:10392000BDE8F08FFFBEFEE70E4B46E70E4B44E7C7
:103930000E4B42E70E4B40E70E4B3EE70E4B3CE78B
:103940000E4B3AE70E4B38E70000B84F0020903698
:103950000800900C1000C0102000F0148000501DD2
:10396000000180210004002A0008302E001060327F
:103970000040C03A0080F03E000052470000214362
:103980000000844B38B5094C40F2FF724FF0011132
:1039900004F5B675284603F0AFFB94F83021D4F84F
:1039A00064112846BDE8384003F01AB9981D062472
:1039B000034B0F29D3F8640198BF00EB4100704717
:1039C000981D0624214B02689A4200D07047204A75
:1039D00000232048D2F8D81030B51F4C41F0200108
:1039E00083B0C4F8D001092004F5E875C4E9750373
:1039F0004FF48060C2F8D810D2F8D8204FF400619C
:103A0000C4E9773094F8480202F02002C4F8E411C7
:103A10004FF40051984201922846C4F8E811C4E9D5
:103A20007C33019B14BF00234FF48073C4F8EC3146
:103A300003F0B2FF08B1FFBEFEE704F5B673C4F8A9
:103A4000B851C4F8083203B030BD00BF00200240B6
:103A50000044025840000240981D0624014804F02A
:103A600021BC00BF681F062402682DE9F84F4B4BAC
:103A70009A4201D0BDE8F88F494D95F84832002BA5
:103A8000F8D095F83031002B77D0002405F10C09DF
:103A900005F5A17605F59877A04613E003F001013E
:103AA00017F811BCA9F1080000F07AFCBBF1010F76
:103AB00025D895F83031013409F112090236A2B245
:103AC00093422BD917F8012F002AF4D0D5F864318E
:103AD0000021327833F81400D5F8683103EB041371
:103AE00023F81200338801339BB233805FFA83FAE4
:103AF0003A789A42D2D88A46A6F80080D0E7CAF32C
:103B00004001A9F1040000F04BFCBBF1020FCAF325
:103B10008001CED0484600F043FCCAE7002395F868
:103B20004802204909229842C5F8D8314FF48060F4
:103B3000C5F8D011C5F8D4214FF400614FF40052FC
:103B4000C5F8DC3108BF4FF48073C5F8E821C5E93A
:103B5000780100221448C5E97B32C5F8F42103F04E
:103B60001BFF08B1FFBEFEE795F83021D5F86411C0
:103B70000E48BDE8F84F03F033B80A4909224FF464
:103B80008060C5F8D831C5E974124FF400614FF474
:103B90000052C5E97730C5E97912DAE70020024022
:103BA000981D062440000240681F0624041F0624B6
:103BB000704700BF4F4B02689A4200D070474E4B8F
:103BC000D3F8E81030B541F000514C4C85B0D4F832
:103BD0004821C3F8E810D3F8E81001F00051019132
:103BE0000199D3F8E01041F00101C3F8E010D3F8D7
:103BF000E03003F001030293029B32F002033DD058
:103C0000013A012A6BD9D4F84C31012B0AD0002299
:103C10003620114603F036FB362005B0BDE83040B3
:103C200003F06EBBD4F8483133F0020234D0013BCC
:103C3000012BECD8442240233149324DC4F88C107A
:103C400000212846C4F8B010C4E9242300224FF410
:103C50008063C4E926234FF400624FF40053C4E9A3
:103C600028234FF480724FF48033C4E92A2303F0F1
:103C700093FE80B9E560C4F8C440C8E74FF48062A1
:103C8000032303A8ADF80C208DF80E3000F09EFA47
:103C9000D4F84821B4E7FEE71B4BA26343226361DB
:103CA00040231A4DC4E9062300224FF480632846BE
:103CB000C4E908234FF400624FF40053C4E90A2317
:103CC0004FF480724FF48033C4E90C2303F064FE98
:103CD00020B9D4F84831A560E464A8E7FEE74FF4C2
:103CE000A062032303A8ADF80C208DF80E3000F07D
:103CF0006DFA88E70074004000440258E81F06246B
:103D0000280402407420062410040240FC1F0624EC
:103D1000014804F0C7BA00BFFC1F0624014804F0A4
:103D2000C1BA00BF7420062410B5054C204603F02C
:103D300063FC04F58270BDE8104009F05FBE00BF6F
:103D4000E81F0624164BD3F84821D3F85811022A4D
:103D50004FEA510130B583B00CD088B2D3F85C2162
:103D6000D3F8644102EB400300930CB16846A047CE
:103D700003B030BDD3F86021002AF9D088B2D3F85F
:103D80005C41D3F8645104EB400402EB4002CDE9FE
:103D90000042002DECD06846A84703B030BD00BFFC
:103DA000E81F0624134BD3F84821022A10B582B02D
:103DB0000CD0D3F85C11D3F86421009122B1D3F870
:103DC000581168464908904702B010BDD3F86021E9
:103DD000002AF9D0D3F85C11D3F86441CDE9001280
:103DE000002CF1D0D3F8581168464908A04702B01A
:103DF00010BD00BFE81F0624094BD3F84821022A52
:103E00000DD000B5D3E9581283B0019122B1D3F897
:103E1000581101A84908904703B05DF804FB7047AA
:103E2000E81F06240B4BD3F84821022A10D0D3F800
:103E3000581110B5D3E95824C1F34F0382B0490893
:103E400002EB430301930CB101A8A04702B010BDDF
:103E5000704700BFE81F062430B58C463A4C3B4DF6
:103E60008DB0046004F5A27EBCE80F00AEE80F0040
:103E7000DCF8003020462560CEF8003003F0CEFAA2
:103E80000023D4F84C510393C5B11622012D04929E
:103E900017D00022D4F85411D4F848319142CDE91A
:103EA000062218BF0222059233F0020235D0013BF0
:103EB000012B3CD9002528460DB030BD02230493C8
:103EC000E7E7234A0093C4F80C31C4F81431C4F86E
:103ED0000421C4F81C31CDE9013301F089FDD4F887
:103EE00044314BF68032C4F80851002B08BF13460A
:103EF000B0FBF3F304F58270C4F8103109F0E8FB6D
:103F00000028D8D120230290694604F582700093DE
:103F100009F02CFE0028BCD0CDE703A90A4803F025
:103F20009FFB78B9D4F84831013B012BC2D810224D
:103F300003A9054803F094FB051E18BF0125284678
:103F40000DB030BD0125B6E7E81F0624007400401F
:103F50000010004070B504681D4682B01046D4F8C9
:103F60004C31012B03D0D4F84831022B24D1D4F8A2
:103F70005031069A002BC4F85C11C4F864212B461A
:103F80000CBF08260026C4F860010A46C4F8585140
:103F900000212046009603F057FAD4F860212B4602
:103FA00010212046009603F04FFA04F5827009F0C4
:103FB0002FFC002002B070BD012002B070BD00BF18
:103FC00010B50468D4F84C31012B09D1D4F848312C
:103FD00033F0020106D0013B012B0BD9002010BDAC
:103FE000012010BD204603F0BBFAD4F84831013B54
:103FF000012BF3D81021204603F0B2FA002010BDA7
:1040000010B592B0ADF804100180C9B2149C0B2910
:10401000C460C0E901233FD090F801C0BCF10F0F8C
:104020003AD8022A3FD0032A02D0012A00D0002227
:104030000E92012B02D0022B18BF0023022C0F93EB
:104040002CD0032C2AD0012C28D000230A2910932D
:1040500027D85C4A02EB812202610A2914D8DFE8E2
:1040600001F0A39587796B5D4F4133250600564BD0
:10407000D3F8E01041F48061C3F8E010D3F8E030E9
:1040800003F480630C930C9B01230DA9104603FAE3
:104090000CF30D9304F058FC12B010BD0A291094D3
:1040A000D7D90022D8E711220E92C2E7464BD3F8A7
:1040B000E01041F40071C3F8E010D3F8E03003F4ED
:1040C00000730B930B9BDFE73F4BD3F8E01041F4F9
:1040D0008071C3F8E010D3F8E03003F480730A93E2
:1040E0000A9BD1E7384BD3F8E01041F08001C3F8C8
:1040F000E010D3F8E03003F080030993099BC3E795
:10410000314BD3F8E01041F04001C3F8E010D3F890
:10411000E03003F040030893089BB5E72A4BD3F83F
:10412000E01041F02001C3F8E010D3F8E03003F0D4
:1041300020030793079BA7E7234BD3F8E01041F038
:104140001001C3F8E010D3F8E03003F01003069339
:10415000069B99E71C4BD3F8E01041F00801C3F827
:10416000E010D3F8E03003F008030593059B8BE7DC
:10417000154BD3F8E01041F00401C3F8E010D3F878
:10418000E03003F004030493049B7DE70E4BD3F867
:10419000E01041F00201C3F8E010D3F8E03003F082
:1041A00002030393039B6FE7074BD3F8E01041F042
:1041B0000101C3F8E010D3F8E03003F001030293EB
:1041C000029B61E700000258004402588378022BEA
:1041D00030B504468FB037D0032B33D0012B31D00C
:1041E00000230A93E378012B2AD0022B28D0002346
:1041F0000B93002320460C9302F018F90546204645
:1042000002F01CF923780990082B13D8DFE803F09B
:104210001F3245586B7E91A40500594BD3F8E0201E
:1042200042F48072C3F8E020D3F8E03003F48073E6
:104230000893089B09A9284604F086FB0FB030BDFF
:104240000B93D6E70A93CDE711230A93CAE74C4BA9
:1042500009A92846D3F8E02042F00102C3F8E02083
:10426000D3F8E03003F001030093009B04F06CFBF3
:104270000FB030BD424B09A92846D3F8E02042F0E8
:104280000202C3F8E020D3F8E03003F00203019308
:10429000019B04F059FB0FB030BD394B09A92846EA
:1042A000D3F8E02042F00402C3F8E020D3F8E03075
:1042B00003F004030293029B04F046FB0FB030BDF1
:1042C0002F4B09A92846D3F8E02042F00802C3F892
:1042D000E020D3F8E03003F008030393039B04F0DD
:1042E00033FB0FB030BD264B09A92846D3F8E02098
:1042F00042F01002C3F8E020D3F8E03003F01003DE
:104300000493049B04F020FB0FB030BD1C4B09A9A3
:104310002846D3F8E02042F02002C3F8E020D3F88A
:10432000E03003F020030593059B04F00DFB0FB074
:1043300030BD134B09A92846D3F8E02042F04002D3
:10434000C3F8E020D3F8E03003F040030693069B67
:1043500004F0FAFA0FB030BD094B09A92846D3F88A
:10436000E02042F08002C3F8E020D3F8E03003F010
:1043700080030793079B04F0E7FA0FB030BD00BF3E
:104380000044025838B5054602F050F80446284665
:1043900002F054F801462046BDE8384004F0DCBC89
:1043A00070B506460D4602F041F80446304602F06C
:1043B00045F82A1E0146204618BF0122BDE870407C
:1043C00004F0D0BC0023122270B586B0CDE90223E0
:1043D00004930368032B01D804230593061D841D51
:1043E000304602F023F80546304602F027F803462F
:1043F00001A92846019304F0A7FA204602F016F816
:10440000034620461C4602F019F801A9034620463F
:10441000019304F099FA06B070BD00BF634A0368C7
:10442000934210B58CB028D0614A934258D0614A6B
:10443000934200F09480604A934201D00CB010BDCA
:104440005E4C5F48D4F8E03043F00203C4F8E0303B
:10445000D4F8E03003F002030A930A9BFFF7B2FF9F
:10446000D4F8F43043F08003C4F8F430D4F8F430D6
:1044700003F080030B930B9BE0E7504C5148D4F8BA
:10448000E03043F00203C4F8E030D4F8E03003F049
:1044900002030193019BFFF795FFD4F8E830002257
:1044A0001F2043F400131146C4F8E830D4F8E83074
:1044B00003F400130293029BD4F8D83043F00103B5
:1044C000C4F8D830D4F8D83003F001030393039B29
:1044D00002F0D8FE1F200CB0BDE8104002F010BF63
:1044E000364C3948D4F8E03043F08003C4F8E0306B
:1044F000D4F8E03003F080030493049BD4F8E03058
:1045000043F00203C4F8E030D4F8E03003F00203D3
:104510000593059BFFF756FFD4F8E83000222120D1
:1045200043F480031146C4F8E830D4F8E83003F4CB
:1045300080030693069BD4F8D83043F00103C4F8F7
:10454000D830D4F8D83003F001030793079B02F06A
:1045500099FE21200CB0BDE8104002F0D1BE1B48EE
:10456000FFF730FF154B00224820D3F8E8401146F2
:1045700044F40004C3F8E840D3F8E84004F400042D
:104580000894089CD3F8D84044F00104C3F8D840FC
:10459000D3F8D83003F001030993099B02F072FEAF
:1045A00048200CB0BDE8104002F0AABE0054004004
:1045B00000580040005C0040001C005800440258B5
:1045C000DC230624542106242C220624042306245A
:1045D0002DE9F0431A4B87B000254FF010099E4695
:1045E000EC46184BFF22E04667461A700EF118069B
:1045F0000EF13004CDE90055CDE90255ADF800903B
:10460000BCE80F00CDE90455AEE80F009CE80300BC
:104610000095ADF800908EE80300B8E80F000FC6D3
:104620009CE803000095ADF8009086E803000FCFEA
:104630000FC49CE8030084E8030007B0BDE8F083E2
:10464000040000245021062410B5EFF3108472B644
:10465000084B1A78120602D504B962B610BD1B7851
:10466000D82205485BB202FB0300143003F01AFEA7
:10467000F2E700BF5021062454210624014805F02A
:10468000C9BA00BFE0210624014805F0C3BA00BF43
:10469000B8220624014805F0BDBA00BF90230624C5
:1046A0002DE9F0430F68D8243F4D85B007FB04F493
:1046B000032F05EB0403036040DCCB680E46012B9F
:1046C0003CD84DD04FF0D808B646DFF8FC9008FB38
:1046D0000758BEE80F00C446ACE80F00DEF8003013
:1046E0000DF1100ECCF80030D8F808C099E80F0092
:1046F0000EE90F000EEB8703BCF1010F53F8103CDD
:10470000C8F88C3031D0BCF1020F42D0BCF1000FA0
:1047100035D0317C8C34D823002201202C4403FB7B
:1047200007534900C3E92602C3F894102046C3E9A1
:104730002822C3E92A2204F09FFF18B1012005B006
:10474000BDE8F0830146204605F070FA0028F5D157
:104750000146204605F094FA003818BF0120EEE724
:104760000B7C103B672BADD9E8E701F03FF90F4B0D
:1047700098420CBF0E4B0F4BC8F89030C9E701F0C0
:1047800035F90A4B98420CBF0B4B0C4BC8F89030D4
:10479000BFE701F02BF9054B98420CBF084B094BC2
:1047A000C8F89030B5E700BF54210624000E270753
:1047B0002D0FB0303211D0205F4390608A62E0301C
:1047C000200BA0101A098010748901082DE9F0410E
:1047D000046884B01E46E368BDF82C80C3B90D465A
:1047E00017468C34204605F01DFA2028FAD12046C1
:1047F0000C9C33463A462946CDE901840A9C009434
:1048000005F0BAF8003818BF012004B0BDE8F08107
:10481000012004B0BDE8F0812DE9F041046884B0C6
:104820001E46E368BDF82C80C3B90D4617468C348C
:10483000204605F0F7F92028FAD120460C9C334693
:104840003A462946CDE901840A9C009404F06AFFA7
:10485000003818BF012004B0BDE8F081012004B089
:10486000BDE8F081044B10221A7483F8E82083F825
:10487000C02183F8982270475421062430B50023C4
:1048800095B04FF48071062204460B930692139361
:10489000CDE90C13CDE90E33CDE9113301F0AAF8BF
:1048A00007282BD004F1100541F2883206A92846CA
:1048B00006F038F928B10123184684F85C3015B0A9
:1048C00030BD0222022306A92846CDE9002310228A
:1048D0000123CDE9022300224FF48003CDE9042314
:1048E00005224FF0807306926A460F9341F2883397
:1048F00006F084FA0028DED115B030BD0323012074
:1049000084F85C3015B030BD70B50023A4B04FF012
:1049100080724FF480750446ADF806300D93CDE9F2
:1049200010320122CDE90E53CDE91223CDE9143323
:10493000002943D0F02300F1100508AEADF8063091
:10494000C02341F2883231462846089306F0EAF83F
:1049500028B10123184684F85C3024B070BD41F2C0
:1049600088320DF10601284606F046F90346002874
:10497000EFD105224FF480711E93284616924FF016
:1049800080721B9321931F9202AA9FED1F7BCDE99A
:104990001C13CDE922338DED027B9FED1D7B41F28F
:1049A000883316A98DED047B9FED1B7B8DED067B77
:1049B00006F024FA0028CCD124B070BD00F1100517
:1049C00008AE612341F2883231462846089306F04A
:1049D000A9F80028BDD141F288320DF10601284620
:1049E00006F088F90028B4D1BDF80630204623F03F
:1049F000780343F04003ADF80630FFF73FFF00288F
:104A00009ED0A6E7AFF30080000000000100000088
:104A10001000000001000000000000000000400045
:104A20002DE9F04F00234FF4807501264FF0807878
:104A300004462DED028BABB08DF807301393219314
:104A4000299314950E96CDF85C80CDE91533CDE908
:104A50001863CDE91A33CDE92253CDE92433CDE9EA
:104A6000273306231C9300F0C5FF072808D004F164
:104A7000100741F288321CA9384606F053F840B1BD
:104A80000123184684F85C302BB0BDEC028BBDE8E6
:104A9000F08F4FF0020A4FF0020B4FF0050941F280
:104AA000883308AA1CA93846CDF89480CDF87090B8
:104AB0009FED2D8BCDE908AB4FF0000A4FF4800B32
:104AC0008DED0A8BCDE90CAB06F098F90028D7D113
:104AD00041F2883238460EA906F024F80028CFD1DA
:104AE000402341F288320DF1070138468DF8073036
:104AF00006F082F80028C3D141F288330EA902AA39
:104B00003846CDF83890CDF85C809FED197B8DED5F
:104B1000048BCDE906AB8DED027B06F06FF9034601
:104B20000028ADD1CDF870904FF00109CDF89480F8
:104B30004FF00008219308AA29931CA93846229512
:104B4000CDE92333CDE9273341F288338DED0A8B4C
:104B5000CDE90CABCDE9088906F050F9002893D0D7
:104B6000304684F85C608FE7100000000100000010
:104B700040000000400000002DE9F043624CA3B06B
:104B80000D46046000F036FF072800F0A980286871
:104B900023466968AA6807C31E46AB8926F8043B0A
:104BA0003046257B677B05F09FFFE0B9574B012D11
:104BB0004FF00108E061236114BF4FF480134FF4FC
:104BC0000003C4E9058893FAA3F3B3FA83F34FF41F
:104BD0008079013BC4F82490C4E90B00304623627D
:104BE00005F016FF38B10122134684F85C20184600
:104BF00023B0BDE8F08366230B90139041F2883216
:104C000006A90693CDE90C90CDE90E00CDE911007F
:104C1000304605F087FF0028E5D1992341F288321C
:104C200006A93046069305F07DFF0028DBD1052359
:104C30001C9019906A4614934FF08073219014A928
:104C40001D9341F288339FED2A7BCDE91A90CDE97F
:104C50001F008DED007B9FED287B30468DED027BA4
:104C60009FED277B8DED047B06F0C8F80028BAD1B4
:104C700029462046FFF748FE0028B4D12046FFF71A
:104C8000CFFE03460028AED1002FB0D11893304696
:104C90000027002606AA14A9CDF86890CDE91F3395
:104CA000EB2314934FF440631B934FF4005317937B
:104CB0004FF440431C93A0231693062319934FF0FF
:104CC000805321934FF04073CDE906671D9306F0A2
:104CD0000DF9034600288AD0434684F85C8086E7B5
:104CE00001230322184684F85C2023B0BDE8F0833A
:104CF00000000000010000001000000001000000A2
:104D00000000000000004000B424062400500052BF
:104D10002DE9F04F8FB0414B0024026800AF9A425A
:104D20007C63C7E90944C7E90B4403D03C37BD465F
:104D3000BDE8F08F3A4B40F609213A48EB46D3F8EC
:104D4000D42007F11C0607F1220A4FF0020942F4B1
:104D500080424FF00308C3F8D420D3F8D42002F4E3
:104D60008042BA60BA68D3F8E02042F04002C3F84B
:104D7000E020D3F8E02002F04002FA60FA68D3F8AD
:104D8000E02042F02002C3F8E020D3F8E02002F057
:104D900020023A613A69D3F8E02042F01002C3F8E9
:104DA000E020D3F8E02002F010027A617A69D3F8AB
:104DB000E02042F00202C3F8E020D3F8E030F861CE
:104DC00003F002033984BB61174B7B60BB697B68CE
:104DD00053F8040F7B6001F029FB7B6805461868D7
:104DE00001F02CFB16F8013B786207F124012846FC
:104DF000C7F830807B63C7E90A9403F0A5FD5645E8
:104E0000E5D100225C20114602F03CFA5C2002F061
:104E100077FA3C37DD46BD46BDE8F08F00500052C2
:104E2000004402580A0A090910250624114B026899
:104E30009A4200D07047104A70B5D2F8D4300F4C67
:104E400023F4804304F11806C2F8D43054F8040F58
:104E500001F0ECFA0546206801F0F0FA0146284618
:104E600003F0B2FEB442F1D15C20BDE8704002F024
:104E700055BA00BF005000520044025810250624C5
:104E8000014806F0BFB800BFC4240624084B1A1D11
:104E9000981D03F1080110B49C1C9A6603F10A02E4
:104EA000C3E91834C3E91B015DF8044B5A67704726
:104EB000B424062438B5036871B9026A00F12805E4
:104EC00000F5AC74012A0CBF002140218BBB1D4BA7
:104ED0005722C0F858310DE0426A00F1C00500F5D4
:104EE000E874012A0CBF00214021EBB1164B5A2275
:104EF000C0F8D03100232046C4E901214FF480528C
:104F00004FF48061636262614FF48042C4E903310F
:104F10004FF48073C4E906234FF40033236202F098
:104F20003BFD58B1FFBEFEE7084B5822C0F8D03118
:104F3000E0E7074B5922C0F85831DBE7C5E92044C8
:104F4000A56338BD100002407000024028000240F6
:104F5000580002402DE9F043821D05468BB0031D29
:104F600005F10A010830CDE9052305F10C02AB6912
:104F7000CDE907010992002B3DD0EB69B3FA83F824
:104F80004FEA58180123022205AE0AAF4FF0060976
:104F90000393CDE9012356F8044B2B7922789342F1
:104FA00016D02B68F3B1012B02D1F2B10A2304937E
:104FB000204601F043FA03462046009301F036FAFA
:104FC000694603F0C1FCBE42E5D10BB0BDE8F083F9
:104FD000697963789942E4D1B8F1000FF3D02B6876
:104FE000002BE0D1CDF81090E2E76378022B14BFDC
:104FF0000A230823DBE74FF00108C3E7534A03689D
:10500000934230B505468BB055D02032934252D0F2
:105010004F4A934204D02032934201D00BB030BDAE
:105020004C4C4D48D4F8E03043F00103C4F8E03074
:10503000D4F8E03003F001030593059BD4F8E03089
:1050400043F00803C4F8E030D4F8E03003F008037C
:105050000693069BD4F8E03043F04003C4F8E030F8
:10506000D4F8E03003F040030793079BD4F8F03006
:1050700043F40003C4F8F030D4F8F03003F4000334
:105080000893089BFFF766FFD4F8D830296843F0EF
:1050900001032F4A3048C4F8D830891AD4F8D830E0
:1050A00018BF012103F001030993099B0BB0BDE870
:1050B0003040FFF7FFBE274C2848D4F8E03043F0DB
:1050C0000103C4F8E030D4F8E03003F001030093AA
:1050D000009BD4F8E03043F01003C4F8E030D4F87B
:1050E000E03003F010030193019BD4F8E03043F06B
:1050F0004003C4F8E030D4F8E03003F040030293FA
:10510000029BD4F8F03043F48003C4F8F030D4F8B4
:10511000F03003F480030393039BFFF71BFFD4F8E5
:10512000D830296843F00103084A0C48C4F8D83045
:10513000891AD4F8D83018BF012103F00103049371
:10514000049B0BB0BDE83040FFF7B4BE04580140EB
:10515000045C014000440258882706242C250624BC
:10516000014803F09FB800BF84260624014803F0DD
:1051700099B800BFFC260624014803F093B800BF8D
:10518000E0280624014803F08DB800BF5829062402
:105190001A4A0368934210B40BD02032934208D0CD
:1051A000174A934216D02032934213D05DF8044B35
:1051B0007047144B0022D3F85442C3F85822002CF5
:1051C000F4D0D3F84802D3E9931223465DF8044B98
:1051D000520818470B4B0022D3F8B044C3F8B4244C
:1051E000002CE3D0D3F8AC24D3F8A814D3F8A4044B
:1051F000520823465DF8044B184700BF045801408D
:10520000045C01402C250624184A0368934210B41C
:105210000BD02032934208D0154A934217D0203247
:10522000934214D05DF8044B7047124BD3E9942499
:105230005208C3F85822002CF4D0D3E99201234637
:1052400001EB820100EB82005DF8044B1847094B2B
:10525000D3F8AC24D3F8B0445208C3F8B424002CDB
:10526000E0D0D3F8A814D3F8A404E8E70458014028
:10527000045C01402C2506242DE9F04F0C684FF406
:105280001776754F87B004FB06F6012C07EB060A6C
:10529000C0F800A000F3A0800D468E464FF0000835
:1052A000D44669A3D3E9002369A1D1E90001CDE97E
:1052B000022306ABCAF8508203EB8403CDE9040154
:1052C00053F810BC53F8083CCAE992880193BEE831
:1052D0000F00ACE80F00BEE80F00ACE80F00019B28
:1052E0009EE80300CAF828B0CAF8C0308CE8030072
:1052F0002B69042B0CD8DFE803F0737D8791030042
:105300004FF41773554A03FB04739A64C3F8E02003
:10531000AA692B6A002A43D0002B4FF4177308BFE9
:10532000022203FB047318BF0322DA6201221A630C
:10533000EA696B6A002A40D1191E4FF4177318BF2F
:10534000012103FB0473C3E931126B69022B05D8F9
:10535000434A12F80380434A52F823904FF41773DC
:1053600006F128004246494603FB047400233844F2
:1053700063646363E365C4F8DC30C4F8CC30C4F81C
:10538000F430C4E90F33C4E91533C4E93533C4E953
:105390003B33022307F0D8FE002849D0FFBEFEE7CA
:1053A000191E4FF4177318BF012103FB0473C3E9DF
:1053B0000B12EA696B6A002ABED0002B4FF41773F8
:1053C00008BF022203FB047318BF0322C3F8C420E2
:1053D0000122C3F8C820B8E7012007B0BDE8F08F6C
:1053E0004FF417734FF4FA5203FB04739A64C3F833
:1053F000E0208DE74FF417734FF47A5203FB0473E8
:105400009A64C3F8E02083E74FF417734FF4FA422D
:1054100003FB04739A64C3F8E02079E74FF4177331
:105420004BF6803203FB04739A64C3F8E0206FE705
:1054300006F1C000022342464946384407F084FE84
:105440000028CAD0FFBEFEE704580140045C0140BA
:1054500024580140245C01402C25062400770100DB
:10546000148B0108188B01080068704770B5046838
:1054700082B015460E46C4F85032C4E99212069A1C
:10548000C4F85422A269012A26D0626A012A9AB27B
:1054900011D0294604F1C000019207F011FF236AE0
:1054A000019A012B10D0294604F1280007F008FFCB
:1054B000002002B070BD04F1C000019207F092FF1D
:1054C000236A019A012BEED1314604F1280007F03E
:1054D00089FF002002B070BD226A012A9AB211D061
:1054E000294604F12800019207F0EAFE636A019A56
:1054F000012B10D0294604F1C00007F0E1FE002086
:1055000002B070BD04F12800019207F06BFF636ADE
:10551000019A012BEED1314604F1C00007F062FF81
:10552000002002B070BD00BF03681B69042B05D8C2
:10553000044A02EB830393ED000A70479FED020AD1
:10554000704700BF248B010800803B470368D3F8F5
:1055500058027047704700BF08B501F077F8BDE802
:10556000084001F057BF00BF064808B503680BB1FB
:1055700003F0FCFB044803681BB1BDE8084004F0DD
:1055800063BC08BD00540624F84D0624064808B53F
:1055900003680BB103F0EAFB044803681BB1BDE8E4
:1055A000084004F051BC08BD00540624F84D062400
:1055B000064808B503680BB103F0D8FB044803683C
:1055C0001BB1BDE8084004F03FBC08BD00540624F0
:1055D000F84D0624364BDA6A520062D59A6A9A6A06
:1055E0009A6A9B6A180600D500BE314B9B6A9906E1
:1055F00000D500BE2E4B9B6ADA0600D500BE2C4BB0
:105600009B6A1B0700D500BE294B9B6A980700D5F3
:1056100000BE274B9B6AD90700D500BE244B9B6A6E
:105620001A0400D500BE224B9B6A9B0400D500BE25
:105630001F4B9B6AD80400D500BE1D4B9B6A190501
:1056400000D500BE1A4B9B6A5A0500D500BE184B08
:105650009B6A9B0500D500BE154B9B6AD80500D5FB
:1056600000BE134B9B6A990100D500BE104B9B6A8C
:10567000DA0100D500BE0E4B9B6A1B0300D500BEAD
:105680000B4B9B6A580300D500BE094B9B6A9903DC
:1056900000D500BE064B9B6ADA0306D400BE00BEEE
:1056A000FEE7DB6A9B07FAD5F8E700BEF6E700BF26
:1056B00000ED00E000F0D6BF00F0DABF0A4B9B68B7
:1056C00003F17843B3F5003F0BD3084B986848B11A
:1056D0009868012806D09868022803D09B680320A8
:1056E00070470120704700BF00ED00E000008038E7
:1056F0002DE9F041CEB004464C2200210AA810F05A
:10570000D3F92022002102A810F0CEF9BC220021FA
:105710001EA810F0C9F9022005F092F82368012BA9
:105720004FF0000354D0534A02250193C820D16A98
:10573000514B21F00101D162D26A02F001020192C3
:105740009A6942F440429A619B6903F44043019391
:10575000019B494A93699B04FCD5484902240022D5
:1057600001268B6A04274FF0080823F00303234324
:105770008B62052316900AA818934FF48033109675
:10578000179419941597CDF86880CDE91B22212232
:10579000CDE91344CDE90A2305F03CFD00B1FEE755
:1057A0003F220323294602A8CDE902230022082331
:1057B000CDE9042340224023CDE9062340234FF4C2
:1057C0008062CDE9082306F053F80346B8B1FEE73E
:1057D000294A04250093F0209169264B41F4404169
:1057E0009161926902F440420092DA6A42F0010249
:1057F000DA62DB6A03F001030093009BA9E7202231
:105800004FF4805125934FF440152B9280222D9315
:105810001EA83093269135914FF4807124923492D2
:105820000C223394439140F2271120921022CDF89C
:1058300084802A971F96CDE92E34CDE93B334FF46F
:105840008033CDE922463193002446930623CDE9E7
:105850003E4527934FF48063094C2C931E94CDE969
:10586000281206F061FA00B1FEE705F00FF84EB01D
:10587000BDE8F08100040058004802580044025876
:105880000F130F0370B584B0012401F071FD4FF4C4
:1058900080764FF04052194B68460025ADF8004025
:1058A0000396CDE9012301F081FD19224FF0404319
:1058B00068468DF8082001938DF80F40ADF80D6013
:1058C0008DF801408DF80A5001F070FD02230B2283
:1058D00068468DF80F508DF801304FF062538DF807
:1058E00008200193ADF80D408DF80A4001F05EFDEF
:1058F000042001F04BFD04B070BD00BF0E00010399
:1059000030B50D46044685B0D1E9000184E80300B6
:1059100000F06CFEAB79A3B30BF0EAFFFEF758FE84
:105920000AF050FC0BF0DCFC2B798BBB6B799BB144
:10593000BFF34F8FBFF36F8F2A4B0022C3F8502263
:10594000BFF34F8FBFF36F8F5A6942F400325A6131
:10595000BFF34F8FBFF36F8F4FF0FF320023002450
:1059600000256946204802928DF80C30CDE90045AB
:105970000BF048F81C480BF0ADF80AF053F805B0EE
:1059800030BD2046FFF7B4FE2046FFF77BFFC3E79C
:10599000144C0023C4F88430BFF34F8FD4F8801028
:1059A00043F6E07EC1F34E3CC1F3C9014FEA4C1C03
:1059B0000CEA0E000B4640EA8372013BC4F86022F9
:1059C0005A1CF8D1ACF1200C1CF1200FF0D1BFF320
:1059D0004F8F636943F480336361BFF34F8FBFF32D
:1059E0006F8FA3E700ED00E0E429062406F070B80D
:1059F00006F08AB81C4B9B6803F17842B2F5003F71
:105A000025D3B3F5803F20D303F16042B2F5003FC8
:105A10001FD303F15C42B2F5002F1CD303F1704297
:105A2000B2F5902F19D303F14842B2F5803F16D357
:105A300003F18042B2F1806F13D303F1E043B3F579
:105A4000000F2CBF0820072070470120704700205E
:105A500070470220704703207047042070470520DC
:105A600070470620704700BF00ED00E003480023A8
:105A7000034A044903600FF073B800BFE429062409
:105A8000000000245555000810B4204C0022204B83
:105A900083B0D4F888101F4841F47001C4F888100E
:105AA00019681D4C41F0010119601A61196808401C
:105AB0001A4918609A61DA611A629A62DA621A63A4
:105AC0005A639A63DA631A645A64186820F480206F
:105AD00018601A66D3F8DC2042F06042C3F8DC207C
