:020000040800F2
:1000000000000220110A00080D0A00082D580008FF
:100010000D0A00080D0A00080D0A00080000000083
:100020000000000000000000000000000D0A0008B1
:100030000D0A0008000000000D0A0008B157000872
:100040000D0A00080D0A00080D0A00080D0A000834
:100050000D0A00080D0A00080D0A00080D0A000824
:100060000D0A00080D0A00080D0A0008B95300081F
:10007000C5530008B53C0008D1530008DD53000803
:100080002D060108A14800080D0A00080D0A000805
:100090000D0A00080D0A00080D0A00080D0A0008E4
:1000A0000D0A00080D0A00080D0A00080D0A0008D4
:1000B00045FA000851FA00085DFA0008D548000822
:1000C0000D0A0008E14800080D0A0008B5F2000812
:1000D000C1F20008610401088D040108C10401088F
:1000E0000D0A00080D0A0008000000000D0A0008B3
:1000F0000D0A00080D0A00080D0A00080D0A000884
:100100000D0A00080D0A000869FA0008CDF200087F
:10011000F504010829050108813F00080D0A0008BF
:10012000693F0008753F0008F1F2000825F3000858
:10013000610601080D0A00080D0A00080D0A0008F2
:1001400000000000000000000000000000000000AF
:100150000D0A00080D0A00080D0A00085D050108D7
:10016000ED4800080D0A0008C1570008E5570008CF
:100170000D0A0008095800080D0A00080D0A0008B9
:100180000D0A00080D0A000891050108C5050108BF
:10019000D9F20008E5F200080D0A00080D0A00086F
:1001A0000D0A00080D0A00080D0A00080D0A0008D3
:1001B000D95000080D0A00080D0A00080D0A0008B1
:1001C0000D0A00080D0A000875370008813700087D
:1001D0000D0A00088D3700080D0A00080D0A0008F6
:1001E0000D0A00080D0A00080D0A00080D0A000893
:1001F0000D0A00080D0A00080D0A00080D0A000883
:100200000D0A00080D0A00080D0A00080D0A000872
:100210000D0A00080D0A00080D0A00080D0A000862
:100220000D0A00080D0A00080D0A00080000000071
:100230000D0A00080D0A0008000000000D0A000861
:100240000D0A00080D0A00080D0A00080D0A000832
:100250000D0A00080D0A00080D0A00080D0A000822
:100260000D0A00080D0A00080D0A00080D0A000812
:100270000D0A00080D0A0008F90501080000000039
:100280000D0A00080D0A00080D0A00080000000011
:08029000000000000D0A000847
:1002A00010B5054C237833B9044B13B10448AFF3B0
:1002B00000800123237010BD5005002400000000C1
:1002C000E484010808B5034B1BB103490348AFF3AD
:1002D000008008BD0000000054050024E4840108EB
:1002E000034613F8012B002AFBD1181A0138704776
:1002F00001F0FF01102A2BDB10F0070F08D010F8D7
:10030000013B013A8B422DD010F0070F42B3F6D1DA
:10031000F0B441EA012141EA014122F007047FF0F3
:1003200000070023F0E80256083C85EA010586EA4A
:10033000010685FA47F5A3FA87F586FA47F6A5FA86
:1003400087F68EB9EED1F0BC01F0FF0102F0070292
:1003500032B110F8013B013A83EA010313B1F8D13D
:100360000020704701387047002D06BF354603381E
:10037000073815F0010F07D1013015F4807F02BF57
:10038000013015F4C03F0130F0BC0138704700BFA8
:1003900081F0004102E000BF83F0004330B54FEA36
:1003A00041044FEA430594EA050F08BF90EA020FA3
:1003B0001FBF54EA000C55EA020C7FEA645C7FEA36
:1003C000655C00F0E2804FEA5454D4EB5555B8BF59
:1003D0006D420CDD2C4480EA020281EA030382EACA
:1003E000000083EA010180EA020281EA0303362D5C
:1003F00088BF30BD11F0004F4FEA01314FF4801C2F
:100400004CEA113102D0404261EB410113F0004F40
:100410004FEA03334CEA133302D0524263EB4303F7
:1004200094EA050F00F0A780A4F10104D5F1200E95
:100430000DDB02FA0EFC22FA05F2801841F10001F0
:1004400003FA0EF2801843FA05F359410EE0A5F1C4
:1004500020050EF1200E012A03FA0EFC28BF4CF0F5
:10046000020C43FA05F3C01851EBE37101F00045AB
:1004700007D54FF0000EDCF1000C7EEB00006EEBB8
:100480000101B1F5801F1BD3B1F5001F0CD3490842
:100490005FEA30004FEA3C0C04F101044FEA445299
:1004A00012F5800F80F09A80BCF1004F08BF5FEA20
:1004B000500C50F1000041EB045141EA050130BD00
:1004C0005FEA4C0C404141EB0101013C28BFB1F512
:1004D000801FE9D291F0000F04BF01460020B1FA5D
:1004E00081F308BF2033A3F10B03B3F120020CDA30
:1004F0000C3208DD02F1140CC2F10C0201FA0CF00E
:1005000021FA02F10CE002F11402D8BFC2F1200C72
:1005100001FA02F120FA0CFCDCBF41EA0C01904028
:10052000E41AA2BF01EB0451294330BD6FEA040471
:100530001F3C1CDA0C340EDC04F11404C4F120025C
:1005400020FA04F001FA02F340EA030021FA04F36E
:1005500045EA030130BDC4F10C04C4F1200220FAC5
:1005600002F001FA04F340EA0300294630BD21FA03
:1005700004F0294630BD94F0000F83F4801306BFC9
:1005800081F480110134013D4EE77FEA645C18BFBD
:100590007FEA655C29D094EA050F08BF90EA020F54
:1005A00005D054EA000C04BF1946104630BD91EA4C
:1005B000030F1EBF0021002030BD5FEA545C05D14F
:1005C0004000494128BF41F0004130BD14F580048E
:1005D0003CBF01F5801130BD01F0004545F0FE4102
:1005E00041F470014FF0000030BD7FEA645C1ABF37
:1005F000194610467FEA655C1CBF0B46024650EA6E
:10060000013406BF52EA033591EA030F41F4002199
:1006100030BD00BF90F0000F04BF0021704730B51F
:100620004FF4806404F132044FF000054FF00001F4
:1006300050E700BF90F0000F04BF0021704730B5B5
:100640004FF4806404F1320410F0004548BF40428A
:100650004FF000013EE700BF42004FEAE2014FEADF
:1006600031014FEA02701FBF12F07F4393F07F4FBA
:1006700081F06051704732F07F4208BF704793F0BD
:100680007F4F04BF41F40021704730B54FF46074D0
:1006900001F0004521F000411CE700BF50EA0102D3
:1006A00008BF704730B54FF000050AE050EA01027C
:1006B00008BF704730B511F0004502D5404261EBEC
:1006C00041014FF4806404F132045FEA915C3FF42D
:1006D000D8AE4FF003025FEADC0C18BF03325FEACA
:1006E000DC0C18BF033202EBDC02C2F1200300FA7B
:1006F00003FC20FA02F001FA03FE40EA0E0021FAA0
:1007000002F11444BDE600BF53B94AB9002908BF3D
:1007100000281CBF4FF0FF314FF0FF3000F074B9DC
:10072000ADF1080C6DE904CE00F006F8DDF804E048
:10073000DDE9022304B070472DE9F047089D044627
:100740008E46002B4DD18A42944669D9B2FA82F284
:1007500052B101FA02F3C2F1200120FA01F10CFAC0
:1007600002FC41EA030E94404FEA1C48210CBEFBF8
:10077000F8F61FFA8CF708FB16E341EA034306FB81
:1007800007F199420AD91CEB030306F1FF3080F010
:100790001F81994240F21C81023E63445B1AA4B25D
:1007A000B3FBF8F008FB103344EA034400FB07F7FF
:1007B000A7420AD91CEB040400F1FF3380F00A8140
:1007C000A74240F207816444023840EA0640E41B35
:1007D00000261DB1D4400023C5E900433146BDE8E1
:1007E000F0878B4209D9002D00F0EF800026C5E983
:1007F000000130463146BDE8F087B3FA83F6002E9B
:100800004AD18B4202D3824200F2F980841A61EB12
:10081000030301209E46002DE0D0C5E9004EDDE730
:1008200002B9FFDEB2FA82F2002A40F09280A1EB18
:100830000C014FEA1C471FFA8CFE0126200CB1FB6D
:10084000F7F307FB131140EA01410EFB03F0884266
:1008500008D91CEB010103F1FF3802D2884200F2F3
:10086000CB804346091AA4B2B1FBF7F007FB101185
:1008700044EA01440EFB00FEA64508D91CEB040423
:1008800000F1FF3102D2A64500F2BB800846A4EB7E
:100890000E0440EA03409CE7C6F12007B34022FA69
:1008A00007FC4CEA030C20FA07F401FA06F31C4398
:1008B000F9404FEA1C4900FA06F3B1FBF9F8200CA5
:1008C0001FFA8CFE09FB181140EA014108FB0EF0EB
:1008D000884202FA06F20BD91CEB010108F1FF3A3B
:1008E00080F08880884240F28580A8F10208614447
:1008F000091AA4B2B1FBF9F009FB101144EA014155
:1009000000FB0EFE8E4508D91CEB010100F1FF34FF
:100910006CD28E456AD90238614440EA0840A0FB97
:100920000294A1EB0E01A142C846A64656D353D06D
:100930005DB1B3EB080261EB0E0101FA07F722FA91
:1009400006F3F1401F43C5E9007100263146BDE8BA
:10095000F087C2F12003D8400CFA02FC21FA03F31D
:10096000914001434FEA1C471FFA8CFEB3FBF7F09E
:1009700007FB10360B0C43EA064300FB0EF69E42C3
:1009800004FA02F408D91CEB030300F1FF382FD25C
:100990009E422DD9023863449B1B89B2B3FBF7F604
:1009A00007FB163341EA034106FB0EF38B4208D9DD
:1009B0001CEB010106F1FF3816D28B4214D9023E1E
:1009C0006144C91A46EA004638E72E46284605E73C
:1009D0000646E3E61846F8E64B45A9D2B9EB02080D
:1009E00064EB0C0E0138A3E74646EAE7204694E79D
:1009F0004046D1E7D0467BE7023B614432E73046D0
:100A000009E76444023842E7704700BFFEE700BFD1
:100A10000B480C4A904203D0121A0B4914F0AEF85E
:100A20000A480B4A904203D0121A002114F0B4F87D
:100A300005F056F914F076F801F000F9FEE700BF72
:100A4000000000244C0500241C85010850050024EA
:100A5000F04B0624704700BF704700BF704700BFCF
:100A6000704700BF704700BF704700BF704700BFAE
:100A700010B50446054A0649002C064808BF114631
:100A800002F0E6FD044B1C7010BD00BFB4790108F4
:100A9000B0790108B87901084415062410B4084C4F
:100AA000084B217808480131A3FB012303F4FF72AE
:100AB00002EB5303C91A21705DF8044B02F0C8BD64
:100AC0001D080024ABAAAAAAD079010838B50446AB
:100AD00050302DED028BB0EE408A12F003FCD4F8BA
:100AE0008000B5EE004AF8EE006AD4ED084A07EE41
:100AF000900AB7EE007AF6EE005A94ED055AF8EE39
:100B0000673AD4F8881070EE077AE56F4218013121
:100B1000E3EE846A67EEA57A05EB820CF0EE485AA4
:100B200067EE857AB0EE666AD4ED046AE4EEA65A02
:100B3000F0EE476AB1FBF0F3E7EE866A00FB1311B3
:100B4000FCEEE67A17EE903AD31AB3FBF0F200FB14
:100B50001233034405EB8303D3ED007ACCED005A46
:100B600094ED060AC4F8881037EE407AC4ED087A8E
:100B700027EE800AA8EE070ABDEC028B38BD00BF45
:100B800008B54368013B2DED028BB0EE408A092B7E
:100B90005FD8DFE803F00A151B212C3A40545E05AC
:100BA000B0EEC00ABDEC028B08BDF0EEC07AB7EE25
:100BB000007A77EE877A88EE270ABDEC028B08BDB3
:100BC000BDEC028BBDE8084013F0D2BCBDEC028B3B
:100BD000BDE8084013F082B9DFED277A60EE277A8E
:100BE000BDEC028B60EE677AA7EE800A08BDF7EED7
:100BF000007AB4EEE70AF1EE10FA2ADD87EE807A89
:100C0000B0EE000A30EE470ACCE7BDEC028BBDE83F
:100C1000084013F009BDB0EEC00AB1EE400A13F06F
:100C200035FAB5EEC08AF7EE007AF1EE10FABDECB7
:100C3000028B48BFB1EE400A37EEC00A08BDF7EE9E
:100C4000007AB4EEE70AF1EE10FA05D49FED0B0A34
:100C5000A8E7B0EE480AA5E7FFEE007AB4EEE70A8F
:100C6000F1EE10FA02DC9FED060A9BE79FED030A06
:100C700028EE000A96E700BFABAAAA3ECDCC4C3FB7
:100C8000CDCC4CBFF0B5082385B0012600278DF8E8
:100C900009300C468DF80860334632469FED1E0A37
:100CA00002990546009702F0F7FC09238DF80C60C5
:100CB0003A468DF80D3005F110003B4600979FED48
:100CC000160A2E46039904F1500702F0E5FCAB7EAC
:100CD000A3F1FF03B3FA83F35B0985F82130A6463D
:100CE00006F1640C14341035DFED0C7A1436BC4276
:100CF000BEE80F00ACE80F00DEF80030CCF80030A2
:100D000054F8143C54F8102CC5ED087A6B61AB61B3
:100D1000EA61E4D105B0F0BD000000006F12833A33
:100D200010B5044602F0EEFC04F1100002F0EAFCFB
:100D3000237913B1A37A7F2B14D0A07E94F82130AD
:100D4000A0F1FF00B0FA80F04009834284F820004F
:100D500007D0D4F8B83023B1984794F8203084F8FD
:100D6000213010BDD4F8B430002BE6D09847E4E72A
:100D700001EB810110B500EB8104636F012B2DEDB8
:100D8000028BB0EE408A07D0022B14D023B1B0EE14
:100D9000480ABDEC028B10BD94ED1B7AD4ED1C7A91
:100DA00077EEC77AA7EE887AB0EE478AB0EE480AA7
:100DB000BDEC028B10BDB5EEC00AF1EE10FA15D9EC
:100DC00094ED1B0A13F0DCF9F0EE408A94ED1C0A56
:100DD00013F0D6F930EE680AE0EE088AB0EE680A41
:100DE000BDEC028BBDE8104013F050B994ED1B8AA6
:100DF000B0EE480ABDEC028B10BD00BF0000000041
:100E0000D0ED040AB2EE040ADFEDC57A10B504464F
:100E1000C0EEA70A2DED068B13F016FA94ED027AB8
:100E200094ED016A30EE00AAB7EEC77AB7EEC66A53
:100E3000B0EE408A9FEDB85B27EE057B87EE069B00
:100E4000B7EEC99BB0EE490A13F0EEFBF0EE408A14
:100E5000B0EE490A12F014FFB5EE40AAD4ED037AC1
:100E6000F0EE409A77EEA77AF1EE10FA88EEA79AA4
:100E700000F14681F1EECA6A2378062B00F2478121
:100E8000DFE813F06F0016018C00A500BC00DD0048
:100E90000700F7EE007AF8EE005A78EE274A78EE6F
:100EA000677A68EE255AB0EE646AB0EE645AB0EE26
:100EB000674AA7EEA96AA7EEE95AE4EEE97AA4EE3A
:100EC000A94AF0EE464AA8EEE66AB0EE677AE8EE86
:100ED000A64AF0EE457A37EE077AA8EEE65AE8EE33
:100EE000A67A84ED067A65EE846A24EE887A26EE88
:100EF000088AC4ED096A84ED075AC4ED057A84EDC9
:100F0000087A84ED0A8AB0EEE77ADFED866AB4EEFD
:100F1000E67AF1EE10FA00F1EA80D4ED085A4FF0CB
:100F20007E5394ED096AD4ED0A6A85EEA75A94EDD2
:100F3000067AD4ED074A6361C6EE275A86EEA76AA1
:100F4000C7EE276A84ED085A84EEA77AC4ED095AE1
:100F5000BDEC068B84ED0A6AC4ED066A84ED077A5F
:100F600010BDB7EE007AF6EE006AB8EE000A37EE72
:100F7000696A79EE077A29EE800A66EE266A84EDC0
:100F8000096A37EE497AC4ED057A84ED060AC4EDA4
:100F9000086A84ED077AC4ED0A6AB4E7B7EE007A0E
:100FA0000023B8EE000A84ED089AF1EE496A636204
:100FB00079EE077A29EE800A37EE497AC4ED0A6A9B
:100FC000C4ED057A84ED060A84ED077A9BE7B7EE57
:100FD000007AB8EE000A79EE077A84ED087A29EEF5
:100FE000800A84ED0A7A37EE499AC4ED057A84EDD9
:100FF000090A84ED060A84ED079A84E7C9EE086AB7
:10100000B7EE007AB8EE000AF0EE477AB0EE476A23
:1010100029EE800AE9EE487AA9EE086A84ED090A09
:1010200084ED060AC4ED0A7A76EE877A37EE667AA0
:1010300084ED086AC4ED057A84ED077A63E7F7EE7C
:10104000007AB8EE004A78EE274A78EE677AF0EE3A
:10105000645AB0EE645AB0EE677AE7EEE95AA7EE4A
:10106000A95AE4EEA97AA4EEE97AF0EE654AE8EE30
:10107000E65AB0EE676AE8EEA64AF0EE457A2AEE46
:10108000077AA8EEE65AE8EEA67A84ED097A66EECB
:10109000046A24EE887A25EE888AC4ED066A84ED17
:1010A000075AC4ED057A84ED087A84ED0A8A2AE7A6
:1010B000B7EE007AF6EE006AB8EE000A39EE876AFB
:1010C00079EE077A29EE800A66EE266A37EE497ACB
:1010D000C4ED057AB1EE466A84ED060AC4ED086AED
:1010E00084ED077A84ED096AC4ED0A6A0BE70023F0
:1010F000BDEC068B23626362A362A361E36110BD52
:10110000B0EE4A0A13F096FBF0EE406AB4E6D4ED76
:10111000057AF8E6AFF30080182D4454FB211940FE
:101120000000204277CC2B3210B52DED048BB0EEB1
:10113000408A03281FD8DFE800F0027E6F21564C5A
:10114000002194ED090A2046FFF712FED4ED157A2E
:101150005249B7EE007A30EE270A514A514BDFED83
:10116000527A81ED000AC0FE277A82ED000AC7FE9E
:10117000C77AC3ED067ABDEC048B10BD464C002146
:10118000DFED498A204694ED090AFFF7F1FD94ED61
:10119000157A434A032177EE007A4048414BB0EE7E
:1011A000470AF7EE006AC0ED007A2046C2ED007AE9
:1011B00087FEA87A87FE667A83ED067AFFF7D8FD68
:1011C000B0EE408A394811F0E3FF3948B0EE480AE2
:1011D00011F0DEFF94ED157ADFED367AB4EEE77AA2
:1011E000F1EE10FAC7DD344A1378002B4BD0334BA5
:1011F000D3ED007AB4EEE77AF1EE10FABBDD9FEDA5
:10120000306ADFED296A77EE867AC7FEA67AC7FED6
:10121000C77AC3ED007AAEE7B2EE027A294AF7EE5A
:10122000007A294BBDEC048BE0EE077AC2ED007A20
:10123000C3ED007A10BD2548FBEE089AB3EE089A7C
:10124000C0FE298AC8FEC98AC0ED048AFFF7D8FD0E
:101250001F48C0ED048AFFF7D3FDB6EE000A1D4813
:1012600028EE008A88FE298A88FE498A80ED048A51
:10127000FFF7C6FD184880ED048ABDEC048BBDE87D
:101280001040FFF7BDBD01210C4BF0EE687A1170E4
:10129000C3ED008AAEE700BF5C07002420080024ED
:1012A000B808002424080024000000006415062467
:1012B000B0150624CDCCCC3DE8140624EC1406244D
:1012C0000AD7233CFC130624081406247C140624A5
:1012D000B014062414140624481406242DE9F04101
:1012E0002DED068BF7EE009A0546B0EE408A0446D7
:1012F000DFED388A4FF07C5689EE80AA9FED369A52
:10130000243580ED008A80ED0D8A0027284684ED83
:101310000B9AA66240F20118B0EE490A2663C4EDAA
:101320000F8A84ED0EAA12F097F9F0EE407A666506
:10133000B0EE490AE66504F15006C4ED107A304675
:1013400084ED188A84ED19AA84ED169AC4ED1A8AE0
:1013500084F82470A4F84C8012F07EF984ED1B0A06
:1013600094ED030A2846A4F8788084F8507084F835
:10137000247084ED0B0A12F06FF994ED037ADFED1F
:10138000177A304684ED100A27EE270A84ED160AF4
:1013900012F062F9D4ED046A94ED057AD4ED067A80
:1013A000C6FEA86A87FE287AC7FEA87A87FE697AF1
:1013B000C7FEE97ABDEC068B9FED096A84ED1B0A36
:1013C000C6FEC66A84ED057AC4ED046AC4ED067AE9
:1013D000BDE8F081000000000000C8426666863F5C
:1013E0003333733F38B5C36F2DED028BB0EE408AB7
:1013F0001BB1D0F88030044623B9B0EE480ABDECEA
:10140000028B38BD243011F06DFFD4F88000F5EE6A
:10141000004A94ED075A07EE100AF7EE007AB6EE8E
:10142000006AD4ED055AB8EE474AD4F88430B8EED5
:10143000007AE56F30EE270AC11805EB830C013303
:10144000A4EE247A20EE060AB0EE486A20EE250AC1
:10145000F0EE476A94ED047AA5EE076AB0EE677A7B
:10146000B3FBF0F2A0EE267A00FB1233BCEEC77A93
:1014700017EE102A8A1AB2FBF0F100FB112205EBDD
:10148000820292ED007A8CED006AD4ED066A84ED5A
:10149000077A77EEE67AC4F8843027EE267AA8EE4B
:1014A000277AB0EE478AB0EE480ABDEC028B38BD11
:1014B00038B5002304460D462DED048B0370002340
:1014C00080ED010AB0EE618A0363F0EE418AC362E7
:1014D000B0EE609AFFF794FCDFED187AD4ED010AC4
:1014E000F2EE049A204660EEA70A89FE299A89FE48
:1014F000609A84ED029AFFF783FC20469FED101A54
:10150000C8FE818AC8FEE98AC4ED038AFFF778FC29
:101510002046F3EE087AFBEE081AC8FE211AC1FE37
:10152000E71AC4ED041AFFF76BFC20462570BDECEA
:10153000048BBDE83840FFF763BC00BF6666E63E3B
:101540000AD7233C70B5204E0025344629461F4853
:1015500000F068FED4ED097AD4ED0B5A70EE676A9C
:1015600094ED0A7A94ED0C6AE6EEA57A37EEC77A26
:10157000C4ED097AB0EEC77AB4EEC67AF1EE10FA8D
:1015800013DC01351034042DE0D10F48FFF7C8FB00
:101590000F4B1A7842B90F4A0F481049C6E92E205E
:1015A0000122C6F8B4101A7070BD0748B0EE670A81
:1015B0002946C4ED0A7AFFF7DBFBD6F8BC30284693
:1015C000002BDED09847DCE75C0700246C05002484
:1015D0001C080024710A0008291100089D0A00084F
:1015E000334BDFED347A1B782DE9F041324E05465E
:1015F0000C46C6ED007A002B48D0304B1A78002AF2
:1016000044D02F4A9FED2F7AD2ED156A2E4FF4EE7B
:10161000C76AF1EE10FA12D897ED007A9FED2B6AA7
:10162000DFED2B6A27EE067AB4EEE67A87ED007AD4
:10163000F1EE10FA03D50022C7ED007A1A70254AA0
:1016400044F2A711DFF894805368D2ED007A01FBD1
:1016500003F3214800EE103A5360BAEEE00A20EEA0
:10166000270A86ED000A12F0C1FA404686ED000A0C
:1016700011F02AFD97ED007AD8ED0D6AF6EE007AAA
:1016800027EE267A67EE277A86ED007A95ED007AC6
:10169000F6EE006A77EE277AC5ED007A96ED007ACD
:1016A000D4ED007AE7EE267AC4ED007ABDE8F08149
:1016B0004415062400000000E4140624E81406245F
:1016C0005C070024CDCCCC3DEC140624A9FF7F3F61
:1016D00017B7D1383C15062448150624F014062403
:1016E0001E4B1B78012B70B5054684B00C4614D0F8
:1016F000022B10D11A4E90ED000A3046FFF772FE11
:10170000F36F85ED000A94ED000A13B1D6F880302E
:10171000EBB984ED000A04B070BD03A902AB224608
:10172000009101460F4812F0E3F895ED007ADDEDE7
:10173000027ADDED036A37EE277A85ED007AD4ED83
:10174000007A77EEA67AC4ED007A04B070BD304618
:10175000FFF7BCF984ED000ADDE700BF1D08002497
:1017600024080024B80800242DE9F04F2DED048B47
:1017700085B01446814683488A46019200F044FDB4
:10178000804800F04DFD002C00F0F7804FF000087D
:101790007D4F7E4E7E4D7F4C7F4BDFF800B2D9F8F7
:1017A0000010F7EE008A97ED0B7A01EB8801D7ED78
:1017B000089A97ED064AD1ED003A95ED0B8AA3EE13
:1017C000A97AD5ED089A97ED075AD9F80410D6ED05
:1017D000080A01EB8801D6ED0B7ACDED023A24EE32
:1017E000474A96ED066AA9EE878AD7ED099A25EE53
:1017F000475AD5ED064AA3EEA94AD7ED0A9AD5ED88
:10180000075AA3EEA95AD1ED003AD6ED076AE3EEE6
:10181000A07A95ED099A64EEC84A95ED0A0A65EE3C
:10182000C85A96ED091AD6ED0A1AE9EE074A97ED5D
:101830000C2AE0EE075A96ED0C3A26EE676AD5EDD3
:101840000C2A26EEE77A87ED0C5A32EE044A52480B
:10185000F0EE466AA3EEA17A72EEA44A87ED0B4A37
:10186000E3EE816AC5ED0C5AC5ED0B4A86ED0C7AA4
:1018700073EE266AC6ED0B6A8DED028A94ED0B6A53
:1018800094ED087AD4ED066AA7EE276AD4ED094AEA
:1018900094ED077A94ED0A5AD4ED0C5A93ED000AB0
:1018A00066EEC66A8DED036A27EE467A28EE000AD8
:1018B000E4EEA76AA5EE277A75EEA66A84ED0C7AA7
:1018C000C4ED0B6AFFF75CF9334BF0EE406A9DED17
:1018D000039AD3ED027A9BED000A38EEE77A2F489F
:1018E00029EE000A27EE087AA6EEA77A8DED027A95
:1018F000FFF746F99BED027A03A902A878EEC77AB2
:1019000067EE897AE0EE077ACDED037AFFF7E8FE1D
:1019100003A902A8FFF764FE9DED020A204811F01A
:10192000D3FB20489DED030A11F0CEFBDAF800004E
:101930004FEA880CDAF804101A4B08F101086044E9
:101940006144D3F834C0FFEE006A019B144A43455A
:10195000CDF80CC092ED0D7A87FE267A87FE687A64
:1019600080ED007ADDED037A0B4BC7FEA67AC7FE49
:10197000E87AC1ED007A7FF412AF05B0BDEC048BBC
:10198000BDE8F08F6C0500247C140624B0140624F6
:101990001414062448140624FC13062408140624F0
:1019A00064150624B015062430B5374D374C28464B
:1019B0002DED048B9FED368A85B09FED369AF7EEBC
:1019C000008AB0EE480A11F05BFBB0EE480A2046F0
:1019D00011F056FBB0EE490A284611F03DFCDFED50
:1019E0002E1A9FED2E1AB0EE490ADFED2D0A204681
:1019F000CDED031A8DED021ACDED010A11F02CFC8C
:101A0000284A0321284BB0EE480A5160596006214C
:101A1000DDED031A9DED021ADDED010A9FED239A1B
:101A20002348C2ED008AC2ED028AC3ED008AC3EDED
:101A3000028AFFF73DFDB0EE480ADDED031A9DED89
:101A4000021A0621DDED010A1A48FFF731FDB0EE5A
:101A5000681AF0EE490A0421B0EE480A1648FAEE78
:101A6000041AFFF725FDFAEE041AB0EE681A0421F5
:101A7000F0EE490A1148B0EE480A05B0BDEC048BFF
:101A8000BDE83040FFF714BD64150624B0150624E8
:101A900000803B47CDCCCC3E00000000F4FD343F3D
:101AA00000409C45FC13062408140624000048440A
:101AB0007C140624B01406241414062448140624A6
:101AC00030B5364C0021364D9FED360A2046364A59
:101AD0002DED028B83B09FED358A8DED010A13F059
:101AE0005BF89DED010A284611F042FE2E4A0021C6
:101AF00020462F4C13F050F82E4B9DED010A204646
:101B00006B6085ED008AFFF7E9FB00214FF400636D
:101B100029484FF48042C4E91F03C4E92111C4E9F4
:101B2000231113F039F89FED250A04F1240084ED08
:101B30000B0A84ED030A11F08FFDD4ED037A04F152
:101B400050009FED1F7A84ED100A27EE870A84ED7E
:101B5000160A11F081FDB7EE006ADFED1A7ADFEDAB
:101B60001A6A9FED1A7AC6FE886A87FE087AC6FE50
:101B7000E76A87FE467AF6EE007A84ED1B0AC7FE16
:101B8000887AC4ED046AC7FEC67A84ED057AC4ED8E
:101B9000067A03B0BDEC028B30BD00BF004000C030
:101BA000B808002400803B4700EE0200000000005F
:101BB0002408002400A08C46000000C0CDCCCC3E00
:101BC0006666863F3333733F9A99193F9A99593F16
:101BD00010B54FF07E5182B001229FED110A114BDA
:101BE000114819605A60114C8DED010A11F0F0FF97
:101BF0000F4B0D48C36012F009F89DED010A204615
:101C000011F03EFA20469FED0B0A11F0C1FA9FED4C
:101C10000A0A204602B0BDE8104011F01DBB00BF0B
:101C200000803B473C15062448150624F014062482
:101C300000007A450000FA443333333F00B51748BB
:101C400095B000F037F90421144800F085FA03211B
:101C5000124800F0ABFA124801F0FAFC0F4800F00D
:101C6000CFFAFFF7A1FEFFF72BFFFFF7B1FF5022DE
:101C70000C49684612F082FF69460B48FFF702F8EC
:101C8000642003F045FE0949044800F061FAFFF7BB
:101C900059FC0A2003F03CFEF9E700BF6C05002464
:101CA000E8790108C47801085C0700246917000876
:101CB00070B53C4800243C4E4FF60B733B4D32460A
:101CC0003B4904628462C0E96C34C0E97234C0E903
:101CD0000344C0E96E44C0E9744411F0CBFF2C8486
:101CE0005022344905F1640012F048FF3246C5F82D
:101CF000BC4028463049C5E92D4411F0BBFF002502
:101D00002E4B2F492F4A9960DA601D61DD621D63F9
:101D10002D4B2E489960DA601D61DD621D632C4BEE
:101D20009960DA601D61DD621D632A4B9960DA609B
:101D300032461D61DD621D63274911F09BFF274874
:101D40004FF07C5332462649C3608361254BC56101
:101D50000361254B05624361C0E90144C0E91F44AA
:101D6000C0E92144C0E9234411F084FF1F4C3246EE
:101D70001F49204811F07EFF32461F491F4811F0CD
:101D800079FF324621461E4811F074FF3246214643
:101D90001C4811F06FFF324621461B48BDE87040D9
:101DA00011F068BF6C050024000000245C070024CB
:101DB000610A000814790108650A00087C140624E9
:101DC00000007A44F4FD343FB0140624B80800241F
:101DD0001414062448140624690A00082408002460
:101DE0006D0A00089A99993E3333333F550A00082B
:101DF000590A00083C1506245D0A00084815062407
:101E000064150624B0150624F014062400294ED0CB
:101E1000274BF0B5D0E90024481E03F10C0E951CA9
:101E200003F1100C4E00AC4218BF052802EB41052F
:101E30008CBF01200020624538BFAE452CBF012772
:101E40000027384227D02644644538BFB64522D300
:101E50009D890026D8894FEA510E65F30F06A446E6
:101E600002EB8E0E65F31F46002560F30F0560F34D
:101E70001F45104640F8046B70454CF8045BF9D1DF
:101E800021F00100C90705D5998922F81010DB89D6
:101E900024F81030F0BD023A023C023D998922F844
:101EA000021FAA42D98924F8021FF7D1F0BD70475A
:101EB000FC1506242DE9F04340F20113964A012750
:101EC00006462DED028BDDB0C0F8EC21ADF81C30DC
:101ED000002306978DF81E3003F0B8FE044603F089
:101EE00019FD06A90546002840F00081002C00F0ED
:101EF000FD8030468DF81E7003F02EFE072C0DF18C
:101F000098080DD0854906F10C00854B854ACDE92E
:101F10002613012341462892ADF8A43002F058FF61
:101F2000032201234FF000091CA904A806F11005A3
:101F3000CDF870904446CDF810905CAFCDE92023E9
:101F400000220123CDE92223774B01221D9303F1C7
:101F5000007303F540731E934FF44173ADF87C306A
:101F60000023CDE9242303F0B3FA01230CA905A82B
:101F70000C930E931023CDF814908DF840306B4BDA
:101F8000CDF83C900D9302F0B7FC059906F12000C6
:101F900000F062F94FF07E533020049A0A9308A9AA
:101FA0000B930323CDE90803284601F047F928469F
:101FB00001F08EF92846B0EE408A01F077F9D0EDB5
:101FC000007A0DF1580CDFF884E1F8EE677A654687
:101FD000BEE80F0088EE277AACE80F009EE8030009
:101FE0008CE8030086ED7A7A35F8023B20461234FD
:101FF0000222ADF80C30039901F0CEFBA742F3D1D9
:1020000006F1140704230C224146384606F1300538
:1020100000249FED478A01F0D3FB09E001F0F4FDB5
:1020200096ED7A0A01462846013401F0FFF9203581
:10203000072CE1B23846F1D9E1B2013401F0E4FDF8
:1020400000230146F0EE480A28461A4696ED7A0A21
:1020500001F0BAF90C2CEAD13046364B40F82C3F4F
:1020600002F0E0F9344B012206F5D870196801F04E
:1020700063FA324B012206F5E470196801F05CFA4C
:102080002F4B06F5F070C6F8E03102F0CBF92D4B7E
:1020900006F5F270C6F8E43102F0C4F90123D6F86F
:1020A000EC0111A9CDE91333022310301293002360
:1020B00015934BF68033119301F0FAFF384601F087
:1020C0008DFDD6F8EC41237D04F11005FBB92846BF
:1020D0001D4D2368D4E90112009502F067F8012331
:1020E00023755DB0BDEC028BBDE8F083304603F094
:1020F00033FD25B106F1080000F0B0F9FEE6002C32
:102100007FF4FCAE06F1080000F0A8F9F6E62846D8
:1021100002F082F8DBE700BFFC150624050805097C
:1021200005070506050A060604020404010A010B58
:102130006F12033B02070100087A0108047A0108C4
:10214000020E0100020D01000D1E00086479010855
:10215000103001F005B900BFF8B500F110070546D1
:1021600000F1300400F5D87638462DED028B01F0F1
:10217000A1F8384601F0ACF83846B0EE408A01F0DC
:1021800095F8D0ED007AF8EE677A88EE270A85EDAB
:102190007A0A01E095ED7A0A2046203401F0A0F990
:1021A000B442F7D1BDEC028BF8BD00BFF8B500F129
:1021B0001007054600F1300400F5D87638462DEDBD
:1021C000028B01F089F8384601F082F83846B0EE0B
:1021D000408A01F06BF8D0ED007AF8EE677A88EE6D
:1021E000270A85ED7A0A01E095ED7A0A2046203427
:1021F00001F076F9B442F7D1BDEC028BF8BD00BF17
:10220000143001F0EBBC00BF38B500F1300400F52C
:10221000D8752046203401F03FF9AC42F9D138BDE1
:10222000704700BF00EB411191ED0F0A704700BFEE
:1022300007490022074B01F1600010B430245960B7
:102240001A611C601A755DF8044BC3E902027047FD
:1022500000000030FC150624F0B58C2387B0016027
:10226000002203710124FA26194605AB8DF81420CB
:1022700002964022009323460194054602F0D2FBC9
:10228000002840F09B809DF814300DF11707402284
:10229000284603F07F030097CDE901468DF81430FE
:1022A0008DF817302346297902F0E2FB002840F030
:1022B0008580042003F02CFB05AB402228460093C8
:1022C0002346CDE90146297902F0ACFB002875D1FF
:1022D0009DF8143040220097284603F0BF03CDE953
:1022E00001468DF814308DF817302346297902F015
:1022F000BFFB002862D1042003F00AFB0DF1150397
:102300004322284600932346CDE90146297902F06D
:1023100089FB002852D10DF116034822284600936C
:102320002346CDE90146297902F07CFB002845D1FE
:102330009DF8153043220097284643F001038DF89D
:1023400015308DF817309DF8163043F00103CDE9B4
:1023500001468DF816302346297902F089FB68BBC7
:102360009DF816304822009728468DF817302346EE
:10237000CDE90146297902F07BFBF8B905AB402293
:10238000284600932346CDE90146297902F04AFB0D
:10239000A0B99DF8142023460194284602F0CF04EA
:1023A00002960097402229798DF814408DF8174045
:1023B00002F05EFB003818BF012000E0012007B0EA
:1023C000F0BD00BFF0B5102387B0234C01220025DB
:1023D0000126002702A920460195CDE902234FF4EA
:1023E0008052CDE904670AF0A5FD642003F0EAFEFF
:1023F00002A94FF480522046CDE904670226102737
:10240000CDE902670AF096FD0322102302A92046B7
:10241000CDE9022300230422CDE904234FF48052A6
:102420000AF088FD40F23223042202A9019310230E
:102430002046CDE90223019A012305924FF48052F0
:1024400004930AF077FD40F6060120460AF092FD5B
:10245000284607B0F0BD00BF1C1606241C4B002206
:102460001C494FF0400C30B5054689B00220596038
:1024700007219A601A620124DA620A224FF4006E80
:10248000DC6006922022CDE9000104200821CDE97C
:10249000020103201021CDE9040108206946C3E9A7
:1024A00004024FF4C072181DC3E906C24FF48052F3
:1024B000C3E909E20AF014FD38B92846FFF782FFA4
:1024C000003818BF012009B030BD204609B030BD2A
:1024D0001816062440410052614A0021D0B5136805
:1024E0008EB00A91002B40F0B9805E4B01214FF66F
:1024F00083700C2411600221D3F8D4200026032716
:1025000042F48052C3F8D420D3F8D42002F480528D
:102510000092009AD3F8E02042F01002C3F8E020C5
:10252000D3F8E02002F010020192019AD3F8E020E3
:1025300042F04002C3F8E020D3F8E02002F040026D
:102540000292029AD3F8E02042F00802C3F8E02099
:10255000D3F8E02002F008020392039AD3F8E020B7
:1025600042F48072C3F8E020D3F8E02002F48072D5
:102570000492049AD3F8E02042F08002C3F8E020ED
:10258000D3F8E02002F080020592059AD3F8E0200B
:1025900042F02002C3F8E020D3F8E02002F020024D
:1025A0000692069AD3F8E02042F00402C3F8E02035
:1025B000D3F8E0300C9403F0040307930323079A45
:1025C0000B93CDE9080108A9274805F067FF48F2F9
:1025D0003712022308A925480C94CDE90823CDE938
:1025E0000A6705F05BFF4CF20372022308A920483A
:1025F0000C94CDE90823CDE90A6705F04FFF40F2BE
:10260000FF62022308A91B480C94CDE90823CDE9F9
:102610000A6705F043FF4FF60C72022308A916481B
:102620000C94CDE90823CDE90A6705F037FF4FF692
:102630003F02022308A911480C94CDE90823CDE9F3
:102640000A6705F02BFF2022022308A90A480C94F0
:10265000CDE90A67CDE9082305F020FF0EB0D0BD13
:10266000141606240044025800100258001802589C
:10267000000C025800200258001C02580014025896
:102680002DE9F04FDFF8108406460D46144608F198
:1026900018002DED028B89B000AF03F011F8D8F8C7
:1026A000183073B3D8F81C30D8F80490002B436965
:1026B0000BBF4FF0080A4FF0100A4FF0020B4FF01B
:1026C000040BB9F1000F2AD0A200EA46012B02F157
:1026D000070222F00702ADEB020D6846ADEB020DDA
:1026E000694600F03F81022B00F0D680002B6FD0AE
:1026F0002246C847D5462437BD46BDEC028BBDE80F
:10270000F08FD8F81C30002BF5D0D8F804904FF09B
:10271000080A4FF0020B4369B9F1000FD4D1FB61F5
:10272000D8F80030BB61002BE5D0D54803F03AF86B
:102730006B46BBF1020F786108EE103AFB6900F0BE
:1027400083816A465146A2EBC40295466200EA467E
:10275000B2FBFBF2AAEBC40085460AEB8200EE4610
:10276000F861ADEB010DF8690EEB820CC7F810C0F3
:10277000EC46ADEB010D00EB8201CCF80400CCF887
:10278000081001EB82013869E946CCF80C1000EB27
:102790008201CCF800A001EB8202C9E900E0C9E99E
:1027A0000212012B00F06483022B00F06C82002BDC
:1027B00000F08081620849466046BB69984718EE80
:1027C000103A24379D46BD46BDEC028BBDE8F08F24
:1027D000002C8DD01A46D8ED0C6A9FEDB27A844653
:1027E000331D36F922E00CF1080C07EE90EA33F9BC
:1027F00022E00232F8EEE77A944267EE877A67EEDB
:10280000A67A4CED027A07EE90EAF8EEE77A67EEE8
:10281000877A67EEA67A4CED017AE2D8F961224612
:10282000C847984ED8ED0D6A0020F9692B1D9FED21
:102830009E7A9FED9E6ADFED9E5A22E0F4EEC67A04
:10284000F1EE10FAC0F2C88447F6FE72D1ED017ABB
:1028500045F8202066EEA77AF4EEC77AF1EE10FA7A
:1028600040F2F080F4EEC67AF1EE10FAC0F2D584B0
:1028700047F6FE7243F820200230083184427FF68A
:1028800039AFD1ED007A66EEA77AF4EEC77AF1EEB1
:1028900010FAD3D83246D9E7002C3FF429AFD8ED4F
:1028A0000C6A84469FED787A0022331D8E4656F8D6
:1028B00022100CF1080C07EE901A53F82210023285
:1028C000F8EEE77A944267EE877A67EEA67A4CEDE7
:1028D000027A07EE901AF8EEE77A67EE877A67EEEB
:1028E000A67A4CED017AE2D871462246C7F81CE080
:1028F000C847664ED8ED0D6A0020F9692B1D9FED83
:102900006A7A9FED6A6ADFF894C120E0F4EEC67A35
:10291000F1EE10FAC0F279843246D1ED017A45F831
:10292000202066EEA77AF4EEC77AF1EE10FA40F2B4
:102930008780F4EEC67AF1EE10FAC0F25E84324679
:1029400043F820200230083184427FF6D3AED1ED27
:10295000007A66EEA77AF4EEC77AF1EE10FAD5D8CF
:102960006246DAE7002C3FF4C3AED8ED0C6A864627
:102970009FED477A4FF0000C331D56F82C200EF1D6
:10298000080E82F40002A2F5000207EE902A53F826
:102990002C200CF1020CF8EEE77A82F40002644578
:1029A000A2F5000267EE877A67EEA67A4EED027A0C
:1029B00007EE902AF8EEE77A67EE877A67EEA67A56
:1029C0004EED017AD9D8F9612246C847314ED8ED8B
:1029D0000D6A0020F9692B1D9FED337A9FED336A54
:1029E000DFF8BCC01FE0F4EEC67AF1EE10FAC0F2D8
:1029F000FC833246D1ED017A45F8202066EEA77AB5
:102A0000F4EEC77AF1EE10FA18D9F4EEC67AF1EEC8
:102A100010FAC0F2DA83324643F82020023008313F
:102A200084427FF667AED1ED007A66EEA77AF4EEC7
:102A3000C77AF1EE10FAD6D86246DBE76246EBE7DA
:102A400062467DE7324615E7A100D64662080731A7
:102A500021F00701ADEB010DEA46ADEB010D694632
:102A6000ADEB0E0D0AEB8200EC46ADEB0E0D01EB6B
:102A70008202F861E946CCE900A0C9E9001290E6BB
:102A80006C1606240280FFFF000000300082FF7FEA
:102A90000000003482FF7F0050160624007E008074
:102AA0007E0080FF0000003804FF7FBF04FF7F3FEF
:102AB00000FEFF46002C00F0C982BBF1020FD8F8DF
:102AC000242000F0FA827969C7F8049002EB810EA5
:102AD0005FED0C5A8A00DCF808100EF104007A61F0
:102AE0001A46DCF80C303B61331DD7F810903D617D
:102AF000FD69C7E902CB8C46834636F92210D8ED32
:102B00000C7A06EE101A33F9221006EE901A3EF9EE
:102B10002210B8EEC66A07EE101AF8EEE66A3BF924
:102B20002210B8EEC77A26EE256A66EEA56A27EE71
:102B3000257A26EE276A66EEA76A27EE277A07EE41
:102B4000901A51080232F8EEE77A0AEB81009442BB
:102B500080ED006A05EB810067EEA57AC0ED006AA2
:102B60000CEB810009EB810180ED007A98ED0C7A85
:102B700067EE877AC1ED007ABFD8D7F804903D6937
:102B8000D7E902CB60466208BB6949469847D8F846
:102B90002C307A69D8ED0D6A1A441FED3D7A1FED8D
:102BA0003D6A2B1D904602F1040A5FED3F5A002258
:102BB000A84ED9E900EC51E0F4EEC67AF1EE10FA35
:102BC000C0F2C78247F6FE7045F822000CEB010008
:102BD000D0ED007A66EEA77AF4EEC77AF1EE10FA3D
:102BE0004BD9F4EEC67AF1EE10FAC0F2BA8247F68B
:102BF000FE70BBF1020F43F822002BD0D9F8080079
:102C00000844D0ED007A66EEA77AF4EEC77AF1EECA
:102C100010FA36D9F4EEC67AF1EE10FAC0F2CD828F
:102C200047F6FE7048F82200D9F80C000144D1EDB7
:102C3000007A66EEA77AF4EEC77AF1EE10FA1ED9A2
:102C4000F4EEC67AF1EE10FAC0F2AF8247F6FE71EA
:102C50004AF82210023294427FF6B1AD51080EEBD1
:102C600081008900D0ED007A66EEA77AF4EEC77A8B
:102C7000F1EE10FAA0D83046A6E73046B9E7314663
:102C8000E6E73046CEE7002C00F0E081BBF1020F12
:102C9000D8F8243000F0E1817A69DCF8081003EB01
:102CA000820EC7F804909300DFED6B5A0EF104001A
:102CB00000227B61DCF80C303B61331DD7F81090AB
:102CC0003D61FD69C7E902CB8C46834656F8221068
:102CD000D8ED0C7A07EE101A53F82210B8EEC76A36
:102CE00007EE101A5EF82210F8EEC76A07EE101A07
:102CF00026EE256A5BF82210B8EEC77A66EEA56A62
:102D000026EE276A27EE257A66EEA76A27EE277A4F
:102D100007EE901A51080232F8EEE77A0AEB8100CA
:102D2000944280ED006A05EB810067EEA57AC0ED64
:102D3000006A0CEB810009EB810180ED007A98EDCF
:102D40000C7A67EE877AC1ED007ABFD8D7F8049085
:102D50003D69D7E902CB60466208BB69494698479E
:102D6000D8F82C307A69D8ED0D6A1A449FED3E7A76
:102D70009FED3E6A131D9246DFF8E4C00022FB611E
:102D80002B1D364ED9E9008E4EE0F4EEC67AF1EEF8
:102D900010FAC0F2FC81304645F822000EEB01002B
:102DA000D0ED007A66EEA77AF4EEC77AF1EE10FA6B
:102DB00049D9F4EEC67AF1EE10FAC0F2EF8130464E
:102DC000BBF1020F43F822002AD0D9F808000844CA
:102DD000D0ED007A66EEA77AF4EEC77AF1EE10FA3B
:102DE00035D9F4EEC67AF1EE10FAC0F2C981304658
:102DF0004AF82200D9F80C000144D1ED007A66EEC1
:102E0000A77AF4EEC77AF1EE10FA1ED9F4EEC67A7C
:102E1000F1EE10FAC0F2AD813146F86940F82210A7
:102E2000023294427FF6CBAC510808EB8100890056
:102E3000D0ED007A66EEA77AF4EEC77AF1EE10FADA
:102E4000A3D86046A8E76046BAE76146E5E7604672
:102E5000CEE700BF0280FFFF000000300082FF7F4E
:102E6000007E00800000003404FF7FBF04FF7F3F2E
:102E7000002C00F0EB807A690021D8F82430C7F8E4
:102E8000109003EB820ED7F81C909300FD610EF1B9
:102E900004021FED0C6A7B61331D154656F8212094
:102EA0004808D8ED0C6ABBF1020F82F40002A2F5CB
:102EB000000207EE902A53F8212082F40002B8EEB7
:102EC000E77AA2F5000227EE067A07EE902A0AEBCF
:102ED0008002F8EEE77A27EE267A67EE867A82EDB0
:102EE000007A09EB80024FEA800067EEA67AC2ED15
:102EF000007A27D05EF8212082F40002A2F50002B9
:102F000007EE902A55F8212082F40002B8EEE77A05
:102F1000A2F5000227EE067A07EE902ADCF80820D8
:102F2000F8EEE77A024427EE267A67EE867A82ED9B
:102F3000007A98ED0C7ADCF80C2067EE877A024470
:102F4000C2ED007A02318C42A8D8D7F810906046C2
:102F50006208BB694946FD699847D8F82C307A6900
:102F6000D8ED0D6A1A441FED407A1FED406A131D1B
:102F70009246DFF8C4C20022FB612B1DAB4ED9E99B
:102F8000008E4EE0F4EEC67AF1EE10FAC0F2C58083
:102F9000304645F822000EEB0100D0ED007A66EED7
:102FA000A77AF4EEC77AF1EE10FA49D9F4EEC67AB0
:102FB000F1EE10FAC0F2BF803046BBF1020F43F8C9
:102FC00022002AD0D9F808000844D0ED007A66EE35
:102FD000A77AF4EEC77AF1EE10FA35D9F4EEC67A94
:102FE000F1EE10FAC0F2AE8030464AF82200D9F86D
:102FF0000C000144D1ED007A66EEA77AF4EEC77AB0
:10300000F1EE10FA1ED9F4EEC67AF1EE10FAC0F223
:103010008B803146F86940F82210023294427FF6E4
:10302000CEAB510808EB81008900D0ED007A66EE46
:10303000A77AF4EEC77AF1EE10FAA3D86046A8E7B3
:103040006046BAE76146E5E76046CEE72246494674
:103050006046BB699847FFF7B2BBC7F810B00022C3
:1030600098ED0C6A331DDFED726AD7F81CB07869F1
:1030700056F8221007EE901A53F82210B8EEE77AAD
:1030800007EE901A51080232F8EEE77A27EE267A18
:103090000AEB810E94420BEB810167EEA67A27EED4
:1030A000067A67EE867A8EED007AC1ED007ADFD877
:1030B0008300D7F810B07B614DE61A46C7F810B010
:1030C00098ED0C6A331DDFED5B6AD7F81CB07869A8
:1030D00036F9221007EE101A33F9221007EE901A73
:1030E000B8EEC77A51080232F8EEE77A27EE267A70
:1030F0000AEB810E94420BEB810167EEA67A27EE74
:10310000067A67EE867A8EED007AC1ED007ADFD816
:103110008300D7F810B07B6134E5F0EE675AFEEE1D
:10312000E45A15EE900A34E7F0EE675AFEEEE45AE0
:1031300015EE901A6EE7F0EE675AFEEEE45A15EEC1
:10314000900A3AE7F0EE675AFEEEE45A15EE900A5E
:103150004BE767EEA57AFDEEE77A17EE900A00B22C
:1031600032E567EEA57AFDEEE77A17EE900A00B237
:103170003FE5F0EE675AFEEEE05A15EE901A4CE687
:10318000F0EE675AFEEEE05A15EE900A30E6F0EEE9
:10319000675AFEEEE05A15EE900AFDE5F0EE675A2A
:1031A000FEEEE05A15EE900A0AE667EEA57AFDEE0D
:1031B000E77A17EE901A09B24AE567EEA57AFDEEB6
:1031C000E77A17EE900A00B22CE5F0EE675AFEEEB1
:1031D000E45A15EE902A1FE467EEA57AFDEEE77A31
:1031E00017EE902A12B2FFF731BBF0EE675AFEEEEF
:1031F000E45A15EE902AFFF7FDBBF0EE675AFEEE9B
:10320000E05A15EE902AFFF79BBBF0EE675AFEEEF0
:10321000E05A15EE902AFFF780BB67EEA57AFDEE27
:10322000E77A17EE902A12B2FFF724BB82FF7F00E5
:1032300000000030000000387E0080FF30B5184CE0
:10324000154685B0046004F1080EEC460FC98EE8FF
:103250000F00D4ED047AF5EEC07A8CE80F00F1EEA1
:1032600010FA1ADDB7EE006A94ED057A27EE277A98
:10327000C6EE276A84ED0D7AC4ED0C6A6DB1204666
:1032800040F8185F02F01CFA064903690020064A5C
:103290002162A262E36005B030BD012005B030BDFF
:1032A00050160624C0200030C000003000680830EE
:1032B000704700BFB1F5807F03680A4628BF4FF40E
:1032C0008072B1F5807F9A6094BF00200120704722
:1032D0000068183002F054BA70B504688AB0A36967
:1032E000E160CBB104F11805284602F0E9F9844603
:1032F000EE46E668BCE80F00AEE80F00BCE80F0041
:10330000AEE80F009CE803008EE8030069462846FB
:10331000049602F0DDF8F8B9E069D8B104F11C05B3
:10332000284602F0CDF98446EE46E468BCE80F007A
:10333000AEE80F00BCE80F00AEE80F009CE8030009
:103340008EE8030069462846049402F0C1F800386C
:1033500018BF01200AB070BD01200AB070BD00BFC7
:1033600030B5046883B00D46E3694BB1A368002013
:10337000E26A616A9B00009004F11C0002F0A2F96D
:10338000A3680748A26A9B00216A009004F1180014
:1033900002F098F90020C4E9005003B030BD00BF2E
:1033A0008126000810B4074B4FF07E5130240022D4
:1033B000032019619C60D8605DF8044B5961C3E932
:1033C0000622704750160624F6EE007A9FED166A24
:1033D00020EE207A0160F7EE006A80ED036A80ED4E
:1033E000020A27EE277AC6EE877AF4EEE67AF1EE45
:1033F00010FA11DDF0EE667A4FF07E514FF0000CBE
:1034000002760022C0ED017AC0F814C00161437653
:103410008276C0ED070A7047F4EEC67AF1EE10FA34
:10342000EAD5F0EE467AE7E700000000DFED187A13
:10343000B6EE007AF7EE006A9FED166A60EE277A24
:10344000016080ED036A80ED020A67EE877A86EEFE
:10345000A77AB4EEE67AF1EE10FA10DDB0EE667AF5
:103460004FF0804C4FF07C514FF48072012380ED7F
:10347000017AC0F810C04161028383767047B4EED0
:10348000C67AF1EE10FAEBD5B0EE467AE8E700BF67
:103490006F12033B000000000268037E128807EEF3
:1034A000902AFBEEC87A1BB1B7EE007A77EE677A06
:1034B000D0ED056A90ED047A77EEE67A437E67EE0A
:1034C000877A0BB1F1EE677A90ED030A90ED017AFD
:1034D00077EEC07AA7EE270A80ED030A704700BF97
:1034E000837E80ED020AABB9D0ED077A27EE800A21
:1034F000F6EE007AB7EE007A20EE270AC7EE007AE1
:10350000F4EEC77AF1EE10FA07DDF0EE477AC0ED7F
:10351000017A7047DFED067AE8E7F5EEC07AF1EE62
:1035200010FAF4D5DFED037AC0ED017A704700BFE1
:103530006F12033B0000000070B584B00025044604
:103540001646ADF80C102B462A460399009500F05C
:1035500083FEA582A67504B070BD00BF704700BF92
:10356000F8B5134F3C687F2C07D98023114A42F2EB
:1035700024411C463B60A2F87E100F4D2B68012BA6
:103580000AD90C4E0D4D22463146284600F0E8F887
:103590000028F8D13860F8BD22460649074800F0F7
:1035A000DFF80028F7D12B68386001332B60F8BDB5
:1035B0008C16062490160624881606241017062456
:1035C00030B4154C2168F1B14B1E144DE81810F8B9
:1035D00001298C4619460A2A01D00D2A02D14BB185
:1035E000013BF4E70CF102037F2B10D98023236009
:1035F00030BC70470122022323600D200A23685447
:10360000AB5430BC704701220223044DF4E70CF1A7
:1036100001026146F0E700BF8C16062490160624CE
:1036200010B5094C02460B46084821680844C1F110
:10363000800112F073F8236818442060FFF7C0FF80
:10364000FFF78EFF10BD00BF8C16062490160624CF
:103650000FB400B583B004A951F8040B0191FFF732
:10366000DFFF03B05DF804EB04B07047064A07497A
:10367000074808B510F0FEFA034A04490548BDE8BA
:10368000084010F0F7BA00BF000000245D350008C4
:103690001017062414170624F0B51D4683B00446FF
:1036A0001646A5F101059DF82070ADF8041002F052
:1036B0002DF9B5FA85F50023BDF80420012F4FEA56
:1036C000551566712060E572E2802371A372237242
:1036D00009D0022F0FD00123A01D637203B0BDE8F3
:1036E000F04000F09FBE0223A01D637203B0BDE84E
:1036F000F04000F097BEA01D637203B0BDE8F0403B
:1037000000F090BE38B5044602F000F900222368AC
:103710002271834210D00122A57AE37A954020607D
:103720002271A01D6DB243B900F058FF40B228438A
:10373000C0B27F28A0720AD038BD00F04FFFB0FAA7
:1037400080F040092843C0B27F28A072F4D102F073
:10375000DDF807EE900AF8EE677AC4ED037A38BD1B
:10376000084691B208B502F009FB003818BF0120E5
:1037700008BD00BF014806F059B800BF082606245E
:10378000014806F053B800BF08260624014806F099
:103790004DB800BF0826062400B583B04FF0000ED8
:1037A0004FF0030C4274ADF80410BDF8043080F8FB
:1037B00010E0A0F802C0038003B05DF804FB00BF76
:1037C0002DE9F04FDFF81C8300258DB0C04C03704D
:1037D00008F140034260074601920E462022294626
:1037E0004046C4F86831C4F86481CDE90255CDE99A
:1037F0000455CDE90655CDE90855CDE90A5511F036
:10380000CBF92022294604F5A170C4F83151C4F83F
:103810003551C4F83951C4F83D5111F0BDF9019B3F
:1038200084F8485284F830317A68002A6AD02B46EE
:1038300004F59871454606F1100A9E46F01856F8B0
:1038400003B0E2180EF1010ED0F80CC0D0F80490CD
:10385000D0F8088044F803B0C2F80CC04FF0000C58
:10386000C2F80490C2F80880008A25F802CB1082C2
:103870001AF8032001F8012F002A70D07A684FF05F
:1038800001001233724584F84802D7D84FF48022E1
:1038900090489DF8043008214FF000084FF00009CF
:1038A000C4F884310023C4E95B020122C4F87431F6
:1038B00084F88031C4E95E2194F84812C4E964892F
:1038C000A9B3C4F89821002284F8813184F88831A2
:1038D0003B78C4E96722002B38D001220020012167
:1038E000013B84F8A421C4E96C01082B30D8DFE83F
:1038F00013F0BD00C200C700CC00D100D600DB0031
:10390000E100E8009DF804300121C4F87421C4F8F6
:1039100084314FF4802384F880216E4AC4E95B230C
:1039200008230022C4E95E130023C4E964230123B1
:10393000002284F88131002384F888310323C4F8FD
:1039400098313B78C4E96722002BC6D184F8A431B2
:10395000614803F06FF8034638B1FFBEFEE77A68AE
:10396000123372453FF66AAF90E702A95A480293B4
:1039700003F0BEF98246002876D1042240F2FF719E
:103980000A90CDE9081294F83021002A00F0F38063
:103990004FF006080AEBCA034FEACA0904EB4303D7
:1039A0005B7C072B07D8DFE803F0595C5653504D7A
:1039B0004A04072307930FFA8AF6D14406EBC6069A
:1039C00004EB490904EB46077500384600F02AFD70
:1039D00099F81030042B00F3AA80022B00F3BD806D
:1039E00000F0B98004EB0A03002283F8202114F8C8
:1039F0001630002B78D0022B00F08A80012B40F08B
:103A0000B2807B78012B00F0B080002B334B18BFC5
:103A1000002305A93048CDE9053802F037FC00281D
:103A200040F0AC800AF1010A94F830315FFA8AFA6A
:103A3000534540F2A0802A4B53F82A80AAE7062378
:103A40000793B8E705230793B5E704230793B2E785
:103A500003230793AFE702230793ACE70023079301
:103A6000A9E701230793A6E7FFBEFEE70322402351
:103A7000C4E96A236CE707226023C4E96A2367E785
:103A80000F228023C4E96A2362E71F22A023C4E92E
:103A90006A235DE73F22C023C4E96A2358E77F22F7
:103AA000E023C4E96A2353E7FF224FF48073C4E99B
:103AB0006A234DE740F2FF124FF49073C4E96A2382
:103AC00046E740F2FF324FF4A073C4E96A233FE7B0
:103AD000B819062400200240241B06240002B02549
:103AE0000C7A0108C04000307B78062B37D0072BBA
:103AF0003DD0022B4AD0032B4AD0002B4CD0012BB7
:103B000048D0042B4AD0052B254B18BF002380E753
:103B10007B78042B25D0052B2BD08BB3012B31D0F8
:103B2000022B31D0032B1F4B18BF002371E7032357
:103B3000043504EB0A0B4FF0000925448BF82031C3
:103B4000284609F1010900F06DFC9BF8203104358D
:103B50004B45F5DC4BE70123EAE70223E8E7124B8C
:103B600057E7124B55E7002353E7114B51E7114B31
:103B70004FE7114B4DE70DB0BDE8F08FFFBEFEE7FC
:103B80000E4B46E70E4B44E70E4B42E70E4B40E729
:103B90000E4B3EE70E4B3CE70E4B3AE70E4B38E739
:103BA0000000B84F002090360800900C1000C010A4
:103BB0002000F0148000501D000180210004002A24
:103BC0000008302E001060320040C03A0080F03E05
:103BD00000005247000021430000844B38B5094CD7
:103BE00040F2FF724FF0011104F5B675284603F05C
:103BF0002DF894F83021D4F864112846BDE83840F7
:103C000002F098BDB8190624034B0F29D3F86401BC
:103C100098BF00EB41007047B8190624214B026899
:103C20009A4200D07047204A00232048D2F8D8108A
:103C300030B51F4C41F0200183B0C4F8D0010920F9
:103C400004F5E875C4E975034FF48060C2F8D81034
:103C5000D2F8D8204FF40061C4E9773094F84802D4
:103C600002F02002C4F8E4114FF40051984201928E
:103C70002846C4F8E811C4E97C33019B14BF002333
:103C80004FF48073C4F8EC3103F030FC08B1FFBE90
:103C9000FEE704F5B673C4F8B851C4F8083203B0AF
:103CA00030BD00BF002002400044025840000240E6
:103CB000B8190624014804F09FB800BF881B0624E9
:103CC00002682DE9F84F4B4B9A4201D0BDE8F88FBE
:103CD000494D95F84832002BF8D095F83031002B3B
:103CE00077D0002405F10C0905F5A17605F5987744
:103CF000A04613E003F0010117F811BCA9F1080078
:103D000000F07AFCBBF1010F25D895F83031013471
:103D100009F112090236A2B293422BD917F8012FEA
:103D2000002AF4D0D5F864310021327833F8140039
:103D3000D5F8683103EB041323F8120033880133FC
:103D40009BB233805FFA83FA3A789A42D2D88A4695
:103D5000A6F80080D0E7CAF34001A9F1040000F002
:103D60004BFCBBF1020FCAF38001CED0484600F0F5
:103D700043FCCAE7002395F84802204909229842EB
:103D8000C5F8D8314FF48060C5F8D011C5F8D421FA
:103D90004FF400614FF40052C5F8DC3108BF4FF416
:103DA0008073C5F8E821C5E9780100221448C5E907
:103DB0007B32C5F8F42103F099FB08B1FFBEFEE7A2
:103DC00095F83021D5F864110E48BDE8F84F02F09F
:103DD000B1BC0A4909224FF48060C5F8D831C5E961
:103DE00074124FF400614FF40052C5E97730C5E911
:103DF0007912DAE700200240B81906244000024098
:103E0000881B0624241B0624704700BF4F4B026802
:103E10009A4200D070474E4BD3F8E81030B541F0CD
:103E200000514C4C85B0D4F84821C3F8E810D3F8C1
:103E3000E81001F0005101910199D3F8E01041F030
:103E40000101C3F8E010D3F8E03003F0010302935E
:103E5000029B32F002033DD0013A012A6BD9D4F81B
:103E60004C31012B0AD000223620114602F0B4FF5B
:103E7000362005B0BDE8304002F0ECBFD4F8483140
:103E800033F0020234D0013B012BECD84422402312
:103E90003149324DC4F88C1000212846C4F8B010C6
:103EA000C4E9242300224FF48063C4E926234FF49D
:103EB00000624FF40053C4E928234FF480724FF49A
:103EC0008033C4E92A2303F011FB80B9E560C4F80C
:103ED000C440C8E74FF48062032303A8ADF80C2068
:103EE0008DF80E3000F09EFAD4F84821B4E7FEE7D2
:103EF0001B4BA2634322636140231A4DC4E906238E
:103F000000224FF480632846C4E908234FF400627E
:103F10004FF40053C4E90A234FF480724FF4803306
:103F2000C4E90C2303F0E2FA20B9D4F84831A560C3
:103F3000E464A8E7FEE74FF4A062032303A8ADF80A
:103F40000C208DF80E3000F06DFA88E70074004008
:103F500000440258081C062428040240941C06242D
:103F6000100402401C1C0624014803F045BF00BF9A
:103F70001C1C0624014803F03FBF00BF941C06240C
:103F800010B5054C204603F0E1F804F58270BDE859
:103F9000104009F09DB900BF081C0624164BD3F849
:103FA0004821D3F85811022A4FEA510130B583B0A5
:103FB0000CD088B2D3F85C21D3F8644102EB400303
:103FC00000930CB16846A04703B030BDD3F8602120
:103FD000002AF9D088B2D3F85C41D3F8645104EBDD
:103FE000400402EB4002CDE90042002DECD06846CF
:103FF000A84703B030BD00BF081C0624134BD3F8FC
:104000004821022A10B582B00CD0D3F85C11D3F845
:104010006421009122B1D3F85811684649089047AD
:1040200002B010BDD3F86021002AF9D0D3F85C119A
:10403000D3F86441CDE90012002CF1D0D3F8581127
:1040400068464908A04702B010BD00BF081C0624FE
:10405000094BD3F84821022A0DD000B5D3E95812F4
:1040600083B0019122B1D3F8581101A849089047B3
:1040700003B05DF804FB7047081C06240B4BD3F813
:104080004821022A10D0D3F8581110B5D3E958248A
:10409000C1F34F0382B0490802EB430301930CB113
:1040A00001A8A04702B010BD704700BF081C06243D
:1040B00030B58C463A4C3B4D8DB0046004F5A27E81
:1040C000BCE80F00AEE80F00DCF8003020462560A9
:1040D000CEF8003002F04CFF0023D4F84C5103938B
:1040E000C5B11622012D049217D00022D4F8541124
:1040F000D4F848319142CDE9062218BF0222059238
:1041000033F0020235D0013B012B3CD90025284673
:104110000DB030BD02230493E7E7234A0093C4F8AF
:104120000C31C4F81431C4F80421C4F81C31CDE9B1
:10413000013301F089FDD4F844314BF68032C4F8E4
:104140000851002B08BF1346B0FBF3F304F582704F
:10415000C4F8103108F026FF0028D8D1202302909F
:10416000694604F58270009309F06AF90028BCD012
:10417000CDE703A90A4803F01DF878B9D4F848310F
:10418000013B012BC2D8102203A9054803F012F805
:10419000051E18BF012528460DB030BD0125B6E724
:1041A000081C0624007400400010004070B504682C
:1041B0001D4682B01046D4F84C31012B03D0D4F800
:1041C0004831022B24D1D4F85031069A002BC4F880
:1041D0005C11C4F864212B460CBF08260026C4F8E5
:1041E00060010A46C4F8585100212046009602F0AA
:1041F000D5FED4F860212B4610212046009602F00F
:10420000CDFE04F5827008F06DFF002002B070BD95
:10421000012002B070BD00BF10B50468D4F84C3165
:10422000012B09D1D4F8483133F0020106D0013B0B
:10423000012B0BD9002010BD012010BD204602F03B
:1042400039FFD4F84831013B012BF3D81021204627
:1042500002F030FF002010BD10B592B0ADF8041090
:104260000180C9B2149C0B29C460C0E901233FD06E
:1042700090F801C0BCF10F0F3AD8022A3FD0032AB0
:1042800002D0012A00D000220E92012B02D0022B74
:1042900018BF0023022C0F932CD0032C2AD0012C02
:1042A00028D000230A29109327D85C4A02EB8122E8
:1042B00002610A2914D8DFE801F0A39587796B5DC4
:1042C0004F4133250600564BD3F8E01041F480618E
:1042D000C3F8E010D3F8E03003F480630C930C9B38
:1042E00001230DA9104603FA0CF30D9304F0D6F840
:1042F00012B010BD0A291094D7D90022D8E7112294
:104300000E92C2E7464BD3F8E01041F40071C3F8B7
:10431000E010D3F8E03003F400730B930B9BDFE75E
:104320003F4BD3F8E01041F48071C3F8E010D3F8AC
:10433000E03003F480730A930A9BD1E7384BD3F83B
:10434000E01041F08001C3F8E010D3F8E03003F052
:1043500080030993099BC3E7314BD3F8E01041F088
:104360004001C3F8E010D3F8E03003F040030893B5
:10437000089BB5E72A4BD3F8E01041F02001C3F8C1
:10438000E010D3F8E03003F020030793079BA7E782
:10439000234BD3F8E01041F01001C3F8E010D3F83C
:1043A000E03003F010030693069B99E71C4BD3F80B
:1043B000E01041F00801C3F8E010D3F8E03003F05A
:1043C00008030593059B8BE7154BD3F8E01041F0EC
:1043D0000401C3F8E010D3F8E03003F004030493C1
:1043E000049B7DE70E4BD3F8E01041F00201C3F8C7
:1043F000E010D3F8E03003F002030393039B6FE770
:10440000074BD3F8E01041F00101C3F8E010D3F8F6
:10441000E03003F001030293029B61E700000258C1
:10442000004402588378022B30B504468FB037D051
:10443000032B33D0012B31D000230A93E378012BD7
:104440002AD0022B28D000230B93002320460C9364
:1044500001F096FD0546204601F09AFD237809906B
:10446000082B13D8DFE803F01F3245586B7E91A468
:104470000500594BD3F8E02042F48072C3F8E020E5
:10448000D3F8E03003F480730893089B09A9284609
:1044900004F004F80FB030BD0B93D6E70A93CDE7D4
:1044A00011230A93CAE74C4B09A92846D3F8E02008
:1044B00042F00102C3F8E020D3F8E03003F001033A
:1044C0000093009B03F0EAFF0FB030BD424B09A9F7
:1044D0002846D3F8E02042F00202C3F8E020D3F8E7
:1044E000E03003F002030193019B03F0D7FF0FB00C
:1044F00030BD394B09A92846D3F8E02042F0040228
:10450000C3F8E020D3F8E03003F004030293029BE9
:1045100003F0C4FF0FB030BD2F4B09A92846D3F8D4
:10452000E02042F00802C3F8E020D3F8E03003F0C6
:1045300008030393039B03F0B1FF0FB030BD264B7C
:1045400009A92846D3F8E02042F01002C3F8E02081
:10455000D3F8E03003F010030493049B03F09EFFB4
:104560000FB030BD1C4B09A92846D3F8E02042F01B
:104570002002C3F8E020D3F8E03003F020030593D5
:10458000059B03F08BFF0FB030BD134B09A92846E4
:10459000D3F8E02042F04002C3F8E020D3F8E03046
:1045A00003F040030693069B03F078FF0FB030BD85
:1045B000094B09A92846D3F8E02042F08002C3F84D
:1045C000E020D3F8E03003F080030793079B03F06B
:1045D00065FF0FB030BD00BF0044025838B5054636
:1045E00001F0CEFC0446284601F0D2FC01462046EC
:1045F000BDE8384004F05AB970B506460D4601F0E2
:10460000BFFC0446304601F0C3FC2A1E014620468A
:1046100018BF0122BDE8704004F04EB900231222F9
:1046200070B586B0CDE9022304930368032B01D84B
:1046300004230593061D841D304601F0A1FC0546A8
:10464000304601F0A5FC034601A92846019303F07A
:1046500025FF204601F094FC034620461C4601F04D
:1046600097FC01A903462046019303F017FF06B00B
:1046700070BD00BF634A0368934210B58CB028D068
:10468000614A934258D0614A934200F09480604A54
:10469000934201D00CB010BD5E4C5F48D4F8E030BE
:1046A00043F00203C4F8E030D4F8E03003F0020332
:1046B0000A930A9BFFF7B2FFD4F8F43043F080036B
:1046C000C4F8F430D4F8F43003F080030B930B9B60
:1046D000E0E7504C5148D4F8E03043F00203C4F80E
:1046E000E030D4F8E03003F002030193019BFFF7C0
:1046F00095FFD4F8E83000221F2043F40013114640
:10470000C4F8E830D4F8E83003F400130293029BB5
:10471000D4F8D83043F00103C4F8D830D4F8D830F6
:1047200003F001030393039B02F056FB1F200CB020
:10473000BDE8104002F08EBB364C3948D4F8E0306A
:1047400043F08003C4F8E030D4F8E03003F0800395
:104750000493049BD4F8E03043F00203C4F8E03043
:10476000D4F8E03003F002030593059BFFF756FFF2
:10477000D4F8E8300022212043F480031146C4F825
:10478000E830D4F8E83003F480030693069BD4F8AD
:10479000D83043F00103C4F8D830D4F8D83003F04F
:1047A00001030793079B02F017FB21200CB0BDE823
:1047B000104002F04FBB1B48FFF730FF154B0022A3
:1047C0004820D3F8E840114644F40004C3F8E84018
:1047D000D3F8E84004F400040894089CD3F8D840C7
:1047E00044F00104C3F8D840D3F8D83003F00103F3
:1047F0000993099B02F0F0FA48200CB0BDE8104084
:1048000002F028BB0054004000580040005C00400B
:10481000001C005800440258FC1F0624741D062486
:104820004C1E0624241F06242DE9F0431A4B87B0A2
:1048300000254FF010099E46EC46184BFF22E0463B
:1048400067461A700EF118060EF13004CDE90055D6
:10485000CDE90255ADF80090BCE80F00CDE9045554
:10486000AEE80F009CE803000095ADF800908EE8DC
:104870000300B8E80F000FC69CE803000095ADF8F0
:10488000009086E803000FCF0FC49CE8030084E883
:10489000030007B0BDE8F08304000024701D062467
:1048A00010B5EFF3108472B6084B1A78120602D5D1
:1048B00004B962B610BD1B78D82205485BB202FB72
:1048C0000300143003F098FAF2E700BF701D0624CD
:1048D000741D0624014804F047BF00BF001E0624D3
:1048E000014804F041BF00BFD81E0624014804F06F
:1048F0003BBF00BFB01F06242DE9F0430F68D8244A
:104900003F4D85B007FB04F4032F05EB0403036060
:1049100040DCCB680E46012B3CD84DD04FF0D80878
:10492000B646DFF8FC9008FB0758BEE80F00C44607
:10493000ACE80F00DEF800300DF1100ECCF80030BE
:10494000D8F808C099E80F000EE90F000EEB8703B6
:10495000BCF1010F53F8103CC8F88C3031D0BCF1D9
:10496000020F42D0BCF1000F35D0317C8C34D823FB
:10497000002201202C4403FB07534900C3E926020F
:10498000C3F894102046C3E92822C3E92A2204F080
:104990001DFC18B1012005B0BDE8F083014620469A
:1049A00004F0EEFE0028F5D10146204604F012FF87
:1049B000003818BF0120EEE70B7C103B672BADD908
:1049C000E8E701F03FF90F4B98420CBF0E4B0F4B3D
:1049D000C8F89030C9E701F035F90A4B98420CBF8E
:1049E0000B4B0C4BC8F89030BFE701F02BF9054B8F
:1049F00098420CBF084B094BC8F89030B5E700BF90
:104A0000741D0624000E27072D0FB0303211D02060
:104A10005F4390608A62E030200BA0101A0980107A
:104A20007C7901082DE9F041046884B01E46E368F2
:104A3000BDF82C80C3B90D4617468C34204604F0CF
:104A40009BFE2028FAD120460C9C33463A46294644
:104A5000CDE901840A9C009404F038FD003818BFA9
:104A6000012004B0BDE8F081012004B0BDE8F08170
:104A70002DE9F041046884B01E46E368BDF82C803F
:104A8000C3B90D4617468C34204604F075FE202825
:104A9000FAD120460C9C33463A462946CDE901849A
:104AA0000A9C009404F0E8FB003818BF012004B011
:104AB000BDE8F081012004B0BDE8F081044B102274
:104AC0001A7483F8E82083F8C02183F8982270478D
:104AD000741D062430B5002395B04FF48071062272
:104AE00004460B9306921393CDE90C13CDE90E33D4
:104AF000CDE9113301F0AAF807282BD004F11005F5
:104B000041F2883206A9284605F076FC28B1012337
:104B1000184684F85C3015B030BD0222022306A985
:104B20002846CDE9002310220123CDE902230022EB
:104B30004FF48003CDE9042305224FF080730692E1
:104B40006A460F9341F2883305F0C2FD0028DED19A
:104B500015B030BD0323012084F85C3015B030BDA2
:104B600070B50023A4B04FF080724FF480750446F6
:104B7000ADF806300D93CDE910320122CDE90E5388
:104B8000CDE91223CDE91433002943D0F02300F1FD
:104B9000100508AEADF80630C02341F28832314628
:104BA0002846089305F028FC28B10123184684F80C
:104BB0005C3024B070BD41F288320DF10601284608
:104BC00005F084FC03460028EFD105224FF48071E4
:104BD0001E93284616924FF080721B9321931F92CA
:104BE00002AA9FED1F7BCDE91C13CDE922338DED89
:104BF000027B9FED1D7B41F2883316A98DED047B6E
:104C00009FED1B7B8DED067B05F062FD0028CCD16E
:104C100024B070BD00F1100508AE612341F2883266
:104C200031462846089305F0E7FB0028BDD141F244
:104C300088320DF10601284605F0C6FC0028B4D1E3
:104C4000BDF80630204623F0780343F04003ADF86A
:104C50000630FFF73FFF00289ED0A6E7AFF30080A5
:104C60000000000001000000100000000100000032
:104C700000000000000040002DE9F04F00234FF439
:104C8000807501264FF0807804462DED028BABB085
:104C90008DF8073013932193299314950E96CDF830
:104CA0005C80CDE91533CDE91863CDE91A33CDE940
:104CB0002253CDE92433CDE9273306231C9300F09A
:104CC000C5FF072808D004F1100741F288321CA95B
:104CD000384605F091FB40B10123184684F85C305A
:104CE0002BB0BDEC028BBDE8F08F4FF0020A4FF005
:104CF000020B4FF0050941F2883308AA1CA9384677
:104D0000CDF89480CDF870909FED2D8BCDE908AB58
:104D10004FF0000A4FF4800B8DED0A8BCDE90CAB00
:104D200005F0D6FC0028D7D141F2883238460EA9CA
:104D300005F062FB0028CFD1402341F288320DF10B
:104D4000070138468DF8073005F0C0FB0028C3D1B5
:104D500041F288330EA902AA3846CDF83890CDF832
:104D60005C809FED197B8DED048BCDE906AB8DED5D
:104D7000027B05F0ADFC03460028ADD1CDF8709064
:104D80004FF00109CDF894804FF00008219308AA54
:104D900029931CA938462295CDE92333CDE9273341
:104DA00041F288338DED0A8BCDE90CABCDE9088952
:104DB00005F08EFC002893D0304684F85C608FE7C5
:104DC0001000000001000000400000004000000052
:104DD0002DE9F043624CA3B00D46046000F036FFAD
:104DE000072800F0A980286823466968AA6807C3D5
:104DF0001E46AB8926F8043B3046257B677B05F0D1
:104E0000DDFAE0B9574B012D4FF00108E061236155
:104E100014BF4FF480134FF40003C4E9058893FADC
:104E2000A3F3B3FA83F34FF48079013BC4F82490E1
:104E3000C4E90B003046236205F054FA38B1012270
:104E4000134684F85C20184623B0BDE8F08366233F
:104E50000B90139041F2883206A90693CDE90C908D
:104E6000CDE90E00CDE91100304605F0C5FA002865
:104E7000E5D1992341F2883206A93046069305F020
:104E8000BBFA0028DBD105231C9019906A461493C5
:104E90004FF08073219014A91D9341F288339FED48
:104EA0002A7BCDE91A90CDE91F008DED007B9FEDA7
:104EB000287B30468DED027B9FED277B8DED047BBB
:104EC00005F006FC0028BAD129462046FFF748FE27
:104ED0000028B4D12046FFF7CFFE03460028AED10C
:104EE000002FB0D1189330460027002606AA14A937
:104EF000CDF86890CDE91F33EB2314934FF4406352
:104F00001B934FF4005317934FF440431C93A0237B
:104F10001693062319934FF0805321934FF040735B
:104F2000CDE906671D9305F04BFC034600288AD0A7
:104F3000434684F85C8086E701230322184684F800
:104F40005C2023B0BDE8F0830000000001000000F9
:104F50001000000001000000000000000000400000
:104F6000D4200624005000522DE9F04F8FB0414B61
:104F70000024026800AF9A427C63C7E90944C7E98C
:104F80000B4403D03C37BD46BDE8F08F3A4B40F6AA
:104F900009213A48EB46D3F8D42007F11C0607F163
:104FA000220A4FF0020942F480424FF00308C3F88E
:104FB000D420D3F8D42002F48042BA60BA68D3F87F
:104FC000E02042F04002C3F8E020D3F8E02002F0F5
:104FD0004002FA60FA68D3F8E02042F02002C3F8F9
:104FE000E020D3F8E02002F020023A613A69D3F8D9
:104FF000E02042F01002C3F8E020D3F8E02002F0F5
:1050000010027A617A69D3F8E02042F00202C3F814
:10501000E020D3F8E030F86103F002033984BB618B
:10502000174B7B60BB697B6853F8040F7B6000F013
:10503000A7FF7B680546186800F0AAFF16F8013B39
:10504000786207F124012846C7F830807B63C7E9FE
:105050000A9403F023FA5645E5D100225C2011465C
:1050600001F0BAFE5C2001F0F5FE3C37DD46BD469E
:10507000BDE8F08F00500052004402580A0A0909A6
:1050800030210624114B02689A4200D07047104A22
:1050900070B5D2F8D4300F4C23F4804304F11806D5
:1050A000C2F8D43054F8040F00F06AFF05462068B7
:1050B00000F06EFF0146284603F030FBB442F1D108
:1050C0005C20BDE8704001F0D3BE00BF005000522C
:1050D0000044025830210624014805F0FDBB00BF02
:1050E000E4200624084B1A1D981D03F1080110B492
:1050F0009C1C9A6603F10A02C3E91834C3E91B0138
:105100005DF8044B5A677047D420062438B503680D
:1051100071B9026A00F1280500F5AC74012A0CBFD0
:10512000002140218BBB1D4B5722C0F858310DE0A8
:10513000426A00F1C00500F5E874012A0CBF0021A5
:105140004021EBB1164B5A22C0F8D0310023204643
:10515000C4E901214FF480524FF4806163626261BF
:105160004FF48042C4E903314FF48073C4E906234D
:105170004FF40033236202F0B9F958B1FFBEFEE7E5
:10518000084B5822C0F8D031E0E7074B5922C0F84D
:105190005831DBE7C5E92044A56338BD1000024063
:1051A0007000024028000240580002402DE9F04300
:1051B000821D05468BB0031D05F10A010830CDE9BB
:1051C000052305F10C02AB69CDE907010992002B1B
:1051D0003DD0EB69B3FA83F84FEA58180123022255
:1051E00005AE0AAF4FF006090393CDE9012356F847
:1051F000044B2B792278934216D02B68F3B1012B04
:1052000002D1F2B10A230493204600F0C1FE034606
:105210002046009300F0B4FE694603F03FF9BE4219
:10522000E5D10BB0BDE8F083697963789942E4D1A8
:10523000B8F1000FF3D02B68002BE0D1CDF810901F
:10524000E2E76378022B14BF0A230823DBE74FF061
:105250000108C3E7534A0368934230B505468BB053
:1052600055D02032934252D04F4A934204D020323C
:10527000934201D00BB030BD4C4C4D48D4F8E030D7
:1052800043F00103C4F8E030D4F8E03003F0010348
:105290000593059BD4F8E03043F00803C4F8E030F0
:1052A000D4F8E03003F008030693069BD4F8E0300E
:1052B00043F04003C4F8E030D4F8E03003F040039A
:1052C0000793079BD4F8F03043F40003C4F8F030A0
:1052D000D4F8F03003F400030893089BFFF766FF4F
:1052E000D4F8D830296843F001032F4A3048C4F875
:1052F000D830891AD4F8D83018BF012103F001033F
:105300000993099B0BB0BDE83040FFF7FFBE274C67
:105310002848D4F8E03043F00103C4F8E030D4F872
:10532000E03003F001030093009BD4F8E03043F039
:105330001003C4F8E030D4F8E03003F01003019318
:10534000019BD4F8E03043F04003C4F8E030D4F8D7
:10535000E03003F040030293029BD4F8F03043F4B2
:105360008003C4F8F030D4F8F03003F480030393E2
:10537000039BFFF71BFFD4F8D830296843F00103E3
:10538000084A0C48C4F8D830891AD4F8D83018BF65
:10539000012103F001030493049B0BB0BDE83040EE
:1053A000FFF7B4BE04580140045C014000440258B9
:1053B000A82306244C210624014802F01DBD00BF8D
:1053C000A4220624014802F017BD00BF1C230624B6
:1053D000014802F011BD00BF00250624014802F07B
:1053E0000BBD00BF782506241A4A0368934210B407
:1053F0000BD02032934208D0174A934216D0203265
:10540000934213D05DF8044B7047144B0022D3F83D
:105410005442C3F85822002CF4D0D3F84802D3E900
:10542000931223465DF8044B520818470B4B002299
:10543000D3F8B044C3F8B424002CE3D0D3F8AC24A0
:10544000D3F8A814D3F8A404520823465DF8044BFB
:10545000184700BF04580140045C01404C21062459
:10546000184A0368934210B40BD02032934208D0FC
:10547000154A934217D02032934214D05DF8044B62
:105480007047124BD3E994245208C3F85822002CD9
:10549000F4D0D3E99201234601EB820100EB8200B4
:1054A0005DF8044B1847094BD3F8AC24D3F8B0444B
:1054B0005208C3F8B424002CE0D0D3F8A814D3F8D1
:1054C000A404E8E704580140045C01404C21062490
:1054D0002DE9F04F0C684FF41776754F87B004FB39
:1054E00006F6012C07EB060AC0F800A000F3A08026
:1054F0000D468E464FF00008D44669A3D3E9002339
:1055000069A1D1E90001CDE9022306ABCAF85082B6
:1055100003EB8403CDE9040153F810BC53F8083CB5
:10552000CAE992880193BEE80F00ACE80F00BEE81C
:105530000F00ACE80F00019B9EE80300CAF828B0FA
:10554000CAF8C0308CE803002B69042B0CD8DFE8C4
:1055500003F0737D879103004FF41773554A03FBE3
:1055600004739A64C3F8E020AA692B6A002A43D026
:10557000002B4FF4177308BF022203FB047318BFFC
:105580000322DA6201221A63EA696B6A002A40D1B7
:10559000191E4FF4177318BF012103FB0473C3E9ED
:1055A00031126B69022B05D8434A12F80380434A33
:1055B00052F823904FF4177306F1280042464946EB
:1055C00003FB04740023384463646363E365C4F835
:1055D000DC30C4F8CC30C4F8F430C4E90F33C4E98B
:1055E0001533C4E93533C4E93B33022307F016FA17
:1055F000002849D0FFBEFEE7191E4FF4177318BFED
:10560000012103FB0473C3E90B12EA696B6A002AE8
:10561000BED0002B4FF4177308BF022203FB0473A4
:1056200018BF0322C3F8C4200122C3F8C820B8E77A
:10563000012007B0BDE8F08F4FF417734FF4FA5212
:1056400003FB04739A64C3F8E0208DE74FF41773EB
:105650004FF47A5203FB04739A64C3F8E02083E7A3
:105660004FF417734FF4FA4203FB04739A64C3F8C0
:10567000E02079E74FF417734BF6803203FB047395
:105680009A64C3F8E0206FE706F1C00002234246A7
:105690004946384407F0C2F90028CAD0FFBEFEE7E9
:1056A00004580140045C014024580140245C01403E
:1056B0004C210624007701004C7A0108507A010839
:1056C0000068704770B5046882B015460E46C4F88D
:1056D0005032C4E99212069AC4F85422A269012AEF
:1056E00026D0626A012A9AB211D0294604F1C0007C
:1056F000019207F04FFA236A019A012B10D0294634
:1057000004F1280007F046FA002002B070BD04F151
:10571000C000019207F0D0FA236A019A012BEED162
:10572000314604F1280007F0C7FA002002B070BD2E
:10573000226A012A9AB211D0294604F12800019266
:1057400007F028FA636A019A012B10D0294604F168
:10575000C00007F01FFA002002B070BD04F128005D
:10576000019207F0A9FA636A019A012BEED1314642
:1057700004F1C00007F0A0FA002002B070BD00BF25
:1057800003681B69042B05D8044A02EB830393EDDD
:10579000000A70479FED020A704700BF5C7A01085B
:1057A00000803B470368D3F858027047704700BF3A
:1057B00008B500F0F5FCBDE8084001F0D5BB00BF1E
:1057C000064808B503680BB103F07AF8044803688B
:1057D0001BB1BDE8084004F029B808BD182E062406
:1057E000102A0624064808B503680BB103F068F8D0
:1057F000044803681BB1BDE8084004F017B808BDB1
:10580000182E0624102A0624064808B503680BB192
:1058100003F056F8044803681BB1BDE8084004F0E3
:1058200005B808BD182E0624102A0624364BDA6A5D
:10583000520062D59A6A9A6A9A6A9B6A180600D5DB
:1058400000BE314B9B6A990600D500BE2E4B9B6A69
:10585000DA0600D500BE2C4B9B6A1B0700D500BEA4
:10586000294B9B6A980700D500BE274B9B6AD90736
:1058700000D500BE244B9B6A1A0400D500BE224B03
:105880009B6A9B0400D500BE1F4B9B6AD80400D5C1
:1058900000BE1D4B9B6A190500D500BE1A4B9B6AC2
:1058A0005A0500D500BE184B9B6A9B0500D500BE6B
:1058B000154B9B6AD80500D500BE134B9B6A990116
:1058C00000D500BE104B9B6ADA0100D500BE0E4B1E
:1058D0009B6A1B0300D500BE0B4B9B6A580300D587
:1058E00000BE094B9B6A990300D500BE064B9B6A1C
:1058F000DA0306D400BE00BEFEE7DB6A9B07FAD5DA
:10590000F8E700BEF6E700BF00ED00E000F054BC91
:1059100000F058BC0A4B9B6803F17843B3F5003F95
:105920000BD3084B986848B19868012806D098684E
:10593000022803D09B68032070470120704700BFF6
:1059400000ED00E0000080382DE9F041CEB00446C3
:105950004C2200210AA80FF01FF92022002102A8E2
:105960000FF01AF9BC2200211EA80FF015F9022031
:1059700004F0D0FB2368012B4FF0000354D0534AAE
:1059800002250193C820D16A514B21F00101D16257
:10599000D26A02F0010201929A6942F440429A618D
:1059A0009B6903F440430193019B494A93699B041B
:1059B000FCD548490224002201268B6A04274FF0B7
:1059C000080823F0030323438B62052316900AA8DB
:1059D00018934FF480331096179419941597CDF8B7
:1059E0006880CDE91B222122CDE91344CDE90A23A9
:1059F00005F07AF800B1FEE73F220323294602A80A
:105A0000CDE9022300220823CDE9042340224023CC
:105A1000CDE9062340234FF48062CDE9082305F049
:105A200091FB0346B8B1FEE7294A04250093F02014
:105A30009169264B41F440419161926902F44042E0
:105A40000092DA6A42F00102DA62DB6A03F00103D3
:105A50000093009BA9E720224FF4805125934FF437
:105A600040152B9280222D931EA8309326913591BC
:105A70004FF48071249234920C223394439140F27B
:105A8000271120921022CDF884802A971F96CDE905
:105A90002E34CDE93B334FF48033CDE922463193A8
:105AA000002446930623CDE93E4527934FF48063B7
:105AB000094C2C931E94CDE9281205F09FFD00B1EE
:105AC000FEE704F04DFB4EB0BDE8F0810004005845
:105AD00000480258004402580F130F0370B584B0F9
